:020000040800F2
:10000000F8680020E9020008B12700086B21000809
:1000100031260008D9060008B531000800000000AC
:10002000000000000000000000000000290200089D
:10003000010800080000000085020008A929000846
:100040000303000803030008030300080303000878
:100050000303000803030008030300080303000868
:100060000303000803030008030300080303000858
:100070000303000803030008030300080303000848
:100080002D070008390700080303000803030008D0
:100090000303000803030008030300080303000828
:1000A000030300086D2A0008030300080303000887
:1000B0000303000803030008030300080303000808
:1000C00003030008030300080303000803030008F8
:1000D00003030008313100083D3100080303000824
:1000E00003030008030300080303000803030008D8
:1000F00003030008030300080303000803030008C8
:1001000003030008030300080303000803030008B7
:1001100003030008030300080303000803030008A7
:100120000303000845070008030300080303000851
:100130000303000803030008030300080303000887
:100140000303000803030008030300080303000877
:1001500051070008030300080303000849310008A1
:100160000303000803030008030300080303000857
:100170000303000803030008030300080000000055
:10018000030300080303000800F002F800F03CF845
:100190000AA090E8000C82448344AAF10107DA45E2
:1001A00001D100F031F8AFF2090EBAE80F0013F0F8
:1001B000010F18BFFB1A43F0010318473C4D000024
:1001C0005C4D0000103A24BF78C878C1FAD85207B5
:1001D00024BF30C830C144BF04680C6070470000C1
:1001E0000023002400250026103A28BF78C1FBD840
:1001F000520728BF30C148BF0B6070471FB504F0DD
:10020000D9FD1FBD10B510BD00F0D2F91146FFF7A2
:10021000F5FF03F03BF800F0F0F903B4FFF7F2FF4D
:1002200003BC02F0D8FF00002C4B19680868B0E846
:10023000F04F80F30988BFF36F8F4FF0000080F319
:10024000118870470000000008480068006880F3CB
:1002500008884FF0000080F3148862B661B6BFF3DF
:100260004F8FBFF36F8F00DF00BF00BF08ED00E0CE
:10027000DFF80C00016841F470010160704700BFB5
:1002800088ED00E0EFF30980BFF36F8F134B1A681E
:100290001EF0100F08BF20ED108A20E9F04F10600B
:1002A00009B44FF0500080F31188BFF34F8FBFF3B4
:1002B0006F8F04F031F84FF0000080F3118809BC13
:1002C00019680868B0E8F04F1EF0100F08BFB0ECD6
:1002D000108A80F30988BFF36F8F704730000020C9
:1002E000EFF3058070470000094880470948004740
:1002F000FEE7FEE7FEE7FEE7FEE7FEE7FEE7FEE7D6
:10030000FEE7FEE704480549054A064B7047000032
:100310005D2A000889010008F8540020F8680020D0
:10032000F8580020F8580020704753EA020C00F0FB
:1003300069802DE9F04B4FF00006002B1FBFB3FA88
:1003400083F503FA05F424FA05F65E4012BF16435E
:10035000B2FA82F502FA05F4C5F120051EBF22FAB1
:1003600005FC44EA0C04203556EA044C4FEA1444D8
:1003700018BF641C4FF000084FF00009904271EB69
:10038000030C39D3002919BFB1FA81F701FA07F636
:10039000B0FA80F700FA07F6C7F120071EBF20FA6F
:1003A00007FC46EA0C062037B6FBF4FCA7EB050772
:1003B000103F07F01F0BCBF120060CFA0BFB2CFAB9
:1003C00006F644BFB3460026202FA4BF5E464FF07A
:1003D000000B5BEA060C08BF4FF0010B19EB0B0991
:1003E000ABFB027C48EB0608C01B06FB02CC0BFBF8
:1003F00003CC71EB0C01C1E70B460246414648466F
:10040000BDE8F08B13B54FF000004FF00001AFF3E3
:100410000080BDE81C407047032A40F2308010F095
:10042000030C00F0158011F8013BBCF1020F62448F
:1004300098BF11F801CB00F8013B38BF11F8013B20
:10044000A2F1040298BF00F801CB38BF00F8013BCD
:1004500011F0030300F07A80083AC0F0088051F8E8
:10046000043B083A51F804CBA0E80810F5E7121D48
:100470005CBF51F8043B40F8043BAFF30080D20767
:1004800024BF11F8013B11F801CB48BF11F8012B33
:1004900024BF00F8013B00F801CB48BF00F8012B56
:1004A000704702F0FF0343EA032242EA024200F0EF
:1004B00002B84FF000020429C0F0128010F0030CC3
:1004C00000F01B80CCF1040CBCF1020F18BF00F847
:1004D000012BA8BF20F8022BA1EB0C0100F00DB8F6
:1004E0005FEAC17C24BF00F8012B00F8012B48BF54
:1004F00000F8012B70474FF0000200B513469446F8
:100500009646203922BFA0E80C50A0E80C50B1F16B
:100510002001BFF4F7AF090728BFA0E80C5048BF7F
:100520000CC05DF804EB890028BF40F8042B08BF1D
:10053000704748BF20F8022B11F0804F18BF00F819
:10054000012B7047704770477047704710B5203ACD
:10055000C0F00B80B1E81850203AA0E81850B1E87C
:100560001850A0E81850BFF4F5AF5FEA027C24BF32
:10057000B1E81850A0E8185044BF18C918C0BDE829
:1005800010405FEA827C24BF51F8043B40F8043BF2
:1005900008BF7047D20728BF31F8023B48BF11F8A7
:1005A000012B28BF20F8023B48BF00F8012B704701
:1005B000754600F02BF8AE4605006946534620F01C
:1005C0000700854618B020B5FFF79CFEBDE8204027
:1005D0004FF000064FF000074FF000084FF0000BFF
:1005E00021F00701AC46ACE8C009ACE8C009ACE8B2
:1005F000C009ACE8C0098D46704710B50446AFF39A
:1006000000802046BDE81040FFF707BE0048704755
:10061000945400202DE9F0412D4D00242868C46336
:1006200028684FF4FA6707642A4E3068C763306859
:100630000464642000F0B4FA2868C4632868046481
:100640003068C46330680464C82000F0A9FA2868E0
:10065000C763286804643068C46330680764C820CE
:1006600000F09EFA2868C463286804643068C46394
:1006700030680464C82000F093FA2868C4632868CE
:1006800007643068C76330680464C82000F088FAE3
:100690002868C463286804643068C46330680464EC
:1006A000C82000F07DFA2868C763286804643068B1
:1006B000C46330680764642000F072FA2868C46379
:1006C000286804643068C46330680464BDE8F0815D
:1006D00080050020C8050020FEE7000010B5114885
:1006E00001F0B6FF4FF400720F490E4801F0E7F930
:1006F0004FF4967000F054FA012001F09BFF0220A5
:1007000001F098FF322000F04BFA0221012001F0A5
:10071000DFFF0221084601F0DBFFBDE81040322078
:1007200000F03EBA58070020D6020020014800F031
:10073000C5B8000048080020014800F0BFB800001C
:10074000A8080020014800F0B9B8000008090020FE
:10075000014800F0B3B80000E80700200168182342
:10076000CAB2103AB2FBF3F2054B6FF30901032A48
:100770009B5CC36500D9091D816508467047000070
:10078000504E000810B5014600208B698A6A4FF070
:10079000C07453B1B3F5005F15D072B1012A0CD00B
:1007A000022A0AD0032A09D104E01AB1012A06D08C
:1007B000022A03D1C96AC90100D5012010BDC96A46
:1007C000A142FAD010BD002AF7D0012AF2D0022AA5
:1007D000F3D0032AF3D010BD30B50468256825F4A2
:1007E00080252560046863608368402B036803D01C
:1007F00099600068C26030BD9A600068C16030BD19
:10080000704772B6FEE72DE9F0410446876D00F0AF
:10081000DFFA064694F835000025022806D080202D
:10082000606584F834500120BDE8F08120680168DB
:1008300021F0160101602068416921F080014161C9
:10084000206C08B9A06C20B12068016821F0080173
:1008500001602068016821F0010101600CE000F0F6
:10086000B7FA801B052807D920206065032084F88B
:10087000350084F83450D7E720680068C007EED10F
:1008800094F85C103F208840B860012084F835005F
:1008900084F834500020C7E790F83510022903D0BF
:1008A0008021416501207047052180F835100068DE
:1008B000016821F001010160002070472DE9F84333
:1008C00004464FF00009CDF8009063484FF41651EC
:1008D000A56D0068B0FBF1F72E6894F85C10082055
:1008E00000FA01F131420FD021680A6852070BD596
:1008F0000A6822F004020A6094F85C108840A8603C
:10090000606D40F00100606594F85C104FF00108E4
:1009100008FA01F0304208D021684969090604D577
:10092000A860606D40F00200606594F85C100420DF
:100930008840304208D021680968890704D5A8603A
:10094000606D40F00400606594F85C1010208840F1
:10095000304218D021680968090714D5A8602068BA
:100960000168490304D50068000308D5A16C07E0BD
:100970000168C90503D4016821F008010160216CF8
:1009800009B12046884794F85C1020208840304206
:1009900031D021680968C9062DD5A86094F83500C2
:1009A00005282068016806D0490347D50068000380
:1009B0001DD4616C1CE021F01601016020684169C2
:1009C00021F080014161206C08B9A06C20B1206841
:1009D000016821F00801016094F85C103F20884014
:1009E000A86084F8358084F83490216D1FE0E16BB5
:1009F00009B120468847606D00282BD0606DC00784
:100A000014D0052084F835002068016821F0010128
:100A100001600098401C0090B84203D8206800682C
:100A2000C007F6D184F8358084F83490E16C002951
:100A300010D001B02046BDE8F04308470168C90561
:100A4000D5D4016821F01001016084F8358084F864
:100A50003490CCE7BDE8F8832C0000202DE9F0416C
:100A6000044600F0B5F906465CB1022084F8350072
:100A7000002584F834502068016821F001010160EC
:100A80000DE00120BDE8F08100F0A2F9801B0528EF
:100A900005D920206065032084F83500F2E720683E
:100AA0000068C007F0D12268116820480140D4E9ED
:100AB00001031843D4E903363343184363691843E9
:100AC000A3691843E3691843236A18430843616A1A
:100AD000042903D1D4E90B1319430843106020689B
:100AE0004069666A20F0070130460E43012704285A
:100AF0000CD1A06A0643E06A40B12046FFF742FEEF
:100B000020B14020606584F83570BAE720684661FE
:100B10002046FFF723FE94F85C203F21914081603E
:100B2000656584F835700020ACE700003F8010F068
:100B30002DE9F0410446866D90F834000025012827
:100B40000DD0012084F8340094F835700020012F76
:100B500007D084F8340002252846BDE8F081022041
:100B6000FBE7022784F8357060652046FFF734FE06
:100B700094F85C103F208840B0602068016841F024
:100B800016010160206C20B12068016841F0080165
:100B900001602068016841F001010160DCE70000AC
:100BA00070B5044600F014F90546601C02D00448F4
:100BB0000078044400F00CF9401BA042FAD370BD49
:100BC000200000202DE9F84FDFF8BCA1002201250C
:100BD00003264FF00F090AF1040BAAF1040E00BF1F
:100BE0000B6805FA02F42340A34270D10F7907F095
:100BF0000307012F01D0022F16D187684FEA420860
:100C000006FA08FC27EA0C07D1F80CC00CFA08FC1D
:100C10004CEA070CC0F808C04768A7430C79C4F336
:100C2000001494403C4344600C79E443A4070AD088
:100C3000C4684FEA420C06FA0CF7BC438F6807FA07
:100C40000CF72743C7600C7904F00304022C12D17F
:100C5000D40800EB840CDCF820405707FF0E09FA9B
:100C600007F824EA0804D1F8108008FA07F848EADF
:100C70000408CCF8208004684FEA420C06FA0CF70E
:100C8000BC430F7907F0030707FA0CF72743076007
:100C90004C6814F4403F70D03C4C276847F48047C0
:100CA0002760246822F0030704F480440094384C41
:100CB00007EB040CDCF8084897074FEA177809FAA5
:100CC00008F7BC43334FB84202D1002724E054E078
:100CD000314FB84201D101271EE0304FB84201D157
:100CE000022719E02E4FB84201D1032714E02D4FFF
:100CF000B84201D104270FE02B4FB84201D105279C
:100D00000AE02A4FB84201D1062705E0284FB84231
:100D100001D1072700E0082707FA08F72743CCF896
:100D20000878DAF800405746D1F804C09C435FEADF
:100D3000CC2C00D51C433C60DBF800405F46D1F86A
:100D400004C09C435FEA8C2C00D51C433C60DEF859
:100D500000407746D1F804C09C435FEA8C3C00D544
:100D60001C433C60084F083F3C68D1F804C09C43DA
:100D70005FEACC3C00D51C433C60521C102AFFF4B7
:100D80002FAFBDE8F88F0000083C01404438024016
:100D90000030014000000240000402400008024010
:100DA000000C0240001002400014024000180240F3
:100DB000001C0240426921EA02030A4043EA024160
:100DC000816170470AB1816170470904FBE7000047
:100DD00001488068704700002000002002488168B8
:100DE0000278114481607047200000200B4810B544
:100DF000016841F400710160016841F480610160A3
:100E0000016841F480710160032000F099F80F201F
:100E100000F006F800F04AF8002010BD003C024047
:100E200030B505461C4887B00024016841F0010137
:100E30000160006806A900F00100009001A800F020
:100E40002BF900F059F915494000B0FBF1F11548B4
:100E5000134A491E026040F2E732C0E90324C0E9A8
:100E60000114846100F088FB040012D10D4800F0E9
:100E7000B1FB04000DD1192000F034F8102D07D279
:100E800000222946192000F03BF80748056000E0E1
:100E9000012407B0204630BD4438024040420F00D4
:100EA000000001406C0B0020240000200C4882B0A0
:100EB000016841F480410160006800F480400090C6
:100EC0000748001F016841F080510160006800225E
:100ED00000F0805000900F21901E02B000F010B87A
:100EE00044380240002809DB00F01F020121914034
:100EF0004009800000F1E020C0F8001170470000B8
:100F0000F0B40E4B1B680C46C3F30223C3F1070574
:100F1000042D00D90425191D072901D2002300E062
:100F2000DB1E012606FA05F1491E214099409E402C
:100F3000761E16403143F0BC02F03DB90CED00E0E6
:100F4000064900F0070208684FF6FF03184040EA20
:100F50000220034A10430860704700000CED00E0D7
:100F60000000FA052DE9F0470E46050065D0DFF8D0
:100F70001481D8F80000F7B200F00700B04207D2A1
:100F800088F80070D8F8000000F00700B04254D193
:100F900028683D4C810712D5400703D5206840F4EE
:100FA000E05020602878000703D5206840F46040B6
:100FB00020602068A96820F0F000084320602878AD
:100FC000C0072DD0304968680839012812D002289E
:100FD00013D0032811D00968890700292DDA216868
:100FE00021F0030101432160FFF7F2FE814641F247
:100FF000883A0EE009688903EFE709688901ECE7A0
:10100000FFF7E6FEA0EB0901514502D90320BDE838
:10101000F0872068696800F00C00B0EB810FEFD119
:10102000D8F80010404601F00701B14207D9077017
:10103000006800F00700B04201D00120E7E72878FF
:10104000400705D52068E96820F4E0500843206097
:101050002878000706D52068296920F4604040EA16
:10106000C100206000F058F82168084AC1F303115C
:10107000515CC8400649086006480068FFF7D0FE8A
:101080000020C4E7003C024008380240584E0008E7
:101090002C000020240000200F2202600C4A13685C
:1010A00003F003034360136803F0F00383601368E5
:1010B00003F4E053C36012684FF4E05303EAD20232
:1010C00002610448006800F00700086070470000F3
:1010D00008380240003C024004480549006809689D
:1010E000044AC1F38221515CC84070472C000020A3
:1010F00008380240684E000804480549006809683D
:10110000044AC1F34231515CC84070472C000020B2
:1011100008380240684E0008154810B5006810F005
:101120000C02144813D04110042A0FD0082A0ED103
:101130000F4C241F2268236802F03F025B0207D590
:101140002068C0F38810A0FB010106E0084610BD2E
:101150002168C1F38811A1FB00010023FFF7E5F826
:101160002168C1F30141491C4900B0FBF1F010BDF9
:10117000083802400024F4002DE9F84F04006ED036
:101180002078DFF84C93C007A9F104054AD009F193
:1011900004000168C1F38101012908D00068C0F38F
:1011A000810002280AD1D9F80000400206D528683B
:1011B000800337D560680028E1D033E06068B0F57F
:1011C000803F10D0B0F5A02F286810D020F48030D8
:1011D0002860286820F4802028606068A8B1FFF7A4
:1011E000F7FD06460DE0286840F48030F4E740F44F
:1011F00080202860F7E700BFFFF7EAFD801B642826
:1012000073D828688003F7D50CE0FFF7E1FD0646A8
:1012100005E000BFFFF7DCFD801B6428F0D82868DC
:101220008003F7D42078DFF8AC8280074FF0000A03
:101230003ED5A748001D016811F00C0F08D00068CA
:10124000C0F3810002280BD1D9F80000400207D476
:101250002868800716D5E068012800D112E033E144
:10126000E068B8B10120C8F80000FFF7B1FD0646FC
:1012700005E000BFFFF7ACFD801B0228C0D828683E
:101280008007F7D52868216920F0F80040EAC100FE
:1012900028600DE0C8F800A0FFF79AFD064604E0BC
:1012A000FFF796FD801B02281FD828688007F7D417
:1012B0002078000722D5864F87486169703771B161
:1012C00001210160FFF784FD064604E0FFF780FD81
:1012D000801B022809D838688007F7D50EE0C0F8CF
:1012E00000A0FFF775FD064605E082E0FFF770FD00
:1012F000801B02287DD838688007F7D42078400703
:1013000068D5DFF8CCB100270BF13C0BDBF800000F
:10131000C0000BD4DBF8001041F08051CBF8001076
:10132000DBF80000012700F0805000906B4E306821
:10133000C00510D4306840F480703060FFF748FD7D
:10134000009005E0FFF744FD0099401A022850D8AC
:101350003068C005F6D55E4EA0686C3601280FD007
:101360000528306810D020F001003060306820F08F
:1013700004003060A068B8B1FFF72AFD00900FE0CC
:10138000306840F00100F4E740F004003060F7E717
:10139000FFF71EFD0099411A41F28830814266D85C
:1013A00030688007F4D50EE0FFF712FD009007E0EB
:1013B000FFF70EFD0099411A41F28830814256D85C
:1013C00030688007F4D42FB1DBF8001021F0805191
:1013D000CBF80010A069C8B33D49091D0968C1F3E5
:1013E000810102294AD00228504607D0C8F860007F
:1013F00000E03CE0FFF7ECFC04463BE04746C8F861
:101400006000FFF7E5FC064605E000BFFFF7E0FCE3
:10141000801B02282BD828688001F7D4D4E9070163
:101420000843A16A2E4A490802EB0141626A41EA77
:101430008211084394F82C1040EA0161C9F80010A9
:1014400001203866FFF7C4FC044606E03EE000BF1A
:10145000FFF7BEFC001B022809D828688001F7D5D9
:1014600034E000BFFFF7B4FC001B022802D90320C0
:10147000BDE8F88F28688001F4D427E00128F7D070
:10148000D9F80000E26900F4800191421CD1226A7F
:1014900000F03F01914217D147F6C071626A0140E6
:1014A000B1EB821F10D1A26A4FF0FF3300F440313C
:1014B00003EB5202B1EB024F06D194F82C1000F06E
:1014C0007060B0EB016F01D00120D1E70020CFE7C1
:1014D0000438024000004742800E4742007000403E
:1014E0000000FFFF7047704770B590F83C20012A5C
:1014F00032D0012480F83C40022280F83D2003686D
:101500005A689D6822F070060A6832435A60134B8D
:1015100002689A4214D0B2F1804F11D0104B9A4217
:101520000ED0104B9A420BD00F4B9A4208D00F4B63
:101530009A4205D00E4B9A4202D00E4B9A4204D1E9
:10154000496825F080031943916080F83D400021EF
:1015500080F83C10084670BD022070BD00000140BC
:101560000004004000080040000C0040000401405E
:10157000004001400018004010B5040003D094F86A
:101580003D0010B107E0012010BD002084F83C00B0
:10159000204600F01EF8022084F83D00211D20683E
:1015A00001F06AFA012084F8460084F83E0084F8CD
:1015B0003F0084F8400084F8410084F8420084F839
:1015C000430084F8440084F8450084F83D0000207E
:1015D00010BD704790F83D10012901D001207047DF
:1015E000022180F83D100168CA6842F00102CA6019
:1015F00000681149884214D0B0F1804F11D00F49D2
:1016000088420ED00E4988420BD00E49884208D03D
:101610000D49884205D00D49884202D00C498842C4
:1016200004D1816801F00701062903D0016841F067
:1016300001010160002070470000014000040040EB
:1016400000080040000C0040000401400040014040
:101650000018004070472DE9F04104460068C66854
:1016600005694FF00007A90713D5B10711D5F91E79
:10167000016101202077206880698007204602D020
:10168000FFF7E8FF04E000F0E9F8204600F0A6F9D3
:101690002777680716D5700714D521686FF0040006
:1016A0000861022020772068806910F4407F20467E
:1016B00002D0FFF7CFFF04E000F0D0F8204600F0A2
:1016C0008DF92777280715D5300713D521686FF0D6
:1016D00008000861042020772068C0698007204640
:1016E00002D0FFF7B7FF04E000F0B8F8204600F0A2
:1016F00075F92777E80616D5F00614D521686FF03E
:1017000010000861082020772068C06910F4407F2D
:10171000204602D0FFF79EFF04E000F09FF820462D
:1017200000F05CF92777E80708D0F00706D02168B9
:101730006FF001000861204600F0B6F9280608D5D0
:10174000300606D521686FF0800008612046FFF75B
:10175000C9FE680608D5700606D521686FF04000FE
:101760000861204600F0AAF9A8060AD5B00608D5F7
:1017700021686FF0200008612046BDE8F041FFF7C6
:10178000B2BEBDE8F081000070B586B004461421F9
:101790006846FEF7B0FE2168002529480224B1F111
:1017A000804F11D0274A914236D1016841F004019F
:1017B00001600068694600F0040005904FF4707005
:1017C0008DE83100204838E0016841F001010160F6
:1017D000016801F001010591016841F00201016019
:1017E0000068012600F00200059048F202008DE832
:1017F0003100CDE9035669461448FFF7E3F94FF489
:1018000040608DE83100CDE903561148694600BFBC
:10181000FFF7D8F906B070BD0E4A9142FAD10168BF
:1018200041F0080101600068694600F00800059079
:101830004FF470408DE831000748CDE90354E7E7E5
:10184000303802400004004000080240000002401E
:101850000004024000080040000C0240704770B5D0
:10186000044690F83C0000260D4601280FD00120C8
:1018700084F83C006AB1042A1DD0082A2FD00C2A13
:101880003FD00126002084F83C00304670BD022085
:1018900070BD206801F066F92068816941F0080197
:1018A00081612068816921F004018161206881697A
:1018B0002A69114311E0206801F084F920688169E8
:1018C00041F4006181612068816921F48061816156
:1018D000206881692A6941EA02218161D2E7206892
:1018E00001F0A6F92068C16941F00801C1612068D2
:1018F000C16921F00401C1612068C1692A691143ED
:1019000011E0206801F0C8F92068C16941F4006164
:10191000C1612068C16921F48061C1612068C16929
:101920002A6941EA0221C161ACE710B5040003D085
:1019300094F83D0010B107E0012010BD002084F8AC
:101940003C00204600F01EF8022084F83D00211DD6
:10195000206801F091F8012084F8460084F83E00E8
:1019600084F83F0084F8400084F8410084F8420085
:1019700084F8430084F8440084F8450084F83D006E
:10198000002010BD08B501681148B1F1804F0BD09F
:10199000104A914210D1016841F0020101600068D3
:1019A00000F00200009008BD016841F001010160F3
:1019B000006800F00100F5E7074A9142F3D10168A1
:1019C00041F004010160006800F00400EAE7000053
:1019D000403802400004004000080040704700000A
:1019E00010B50446022249B104290ED0082913D0AB
:1019F00094F84100012816D0012010BD94F83E0053
:101A00000128F9D184F83E200FE094F83F00012826
:101A1000F2D184F83F2008E094F840000128EBD18F
:101A200084F8402001E084F841200122206801F080
:101A30008BF816492068164A884201D0904203D19B
:101A4000436C43F4004343642068884213D0B0F1F0
:101A5000804F10D00F4988420DD00F4988420AD0DC
:101A60000E49884207D0904205D00D49884202D0E5
:101A70000C49884204D1816801F00701062903D08E
:101A8000016841F001010160002010BD000001402B
:101A9000000401400004004000080040000C004029
:101AA000004001400018004000680349884201D10D
:101AB000FFF794B97047000000000140704738B547
:101AC000044690F84200202801D0022038BD51B1D0
:101AD0004AB10120206300206063204601F09EFA95
:101AE000216B012901D0012038BD21680A684968AD
:101AF000009121680C3151E8002F42F0100241E8BA
:101B00000023002BF5D138BD2DE9F0410D461149D8
:101B100088421CD1002180F840100F4C4FF4007611
:101B200031462580A01CFEF7C4FC04F202212A469F
:101B30000F46A01CFEF770FC2946A01C00F094FD87
:101B400032463946BDE8F0410248FFF7B8BFBDE86C
:101B5000F081000058070020D400002010B5044692
:101B60000068406994F84110C0F3C010212911D1D8
:101B700080B12068143050E8001F21F0800140E857
:101B80000012002AF5D1A06B08B1FEF73CFE2046FA
:101B900001F04FF92068406994F84210C0F38010BA
:101BA000222911D180B12068143050E8001F21F0A3
:101BB000400140E80012002AF5D1E06B08B1FEF7C1
:101BC00022FE204601F00EF9002010BD70470000F3
:101BD000F8B5016804460868CA684B6910F00F0F31
:101BE0004FF0000559D003F0010602F49077374317
:101BF00065D0C10705D0D10503D5616C41F0010165
:101C00006164410705D5D90703D0616C41F0020139
:101C10006164810705D5D90703D0616C41F00401E7
:101C20006164010707D502F02001314303D0616CE4
:101C300041F008016164616C00293AD0800604D546
:101C4000900602D5204601F002F920684069616CD7
:101C5000C0F38010090700D460B3204601F0C2F839
:101C600020684069400621D52068143050E8001FE4
:101C700021F0400140E80012002AF5D1E06BA8B144
:101C800072490165E06BFEF707FE002811D0E06B9A
:101C9000016D01B0BDE8F040084783060FD59306FB
:101CA0000DD52046BDE8F84001F0D1B82046FFF739
:101CB0008DFFF8BD2046FFF789FF6564F8BD266BF0
:101CC0002023012E7ED1C6067CD5D6067AD508689B
:101CD0004868009048694FF0020640064DD5E26B17
:101CE000106840684FF480770004000C3AD0A18D52
:101CF000814237D9E085D069B8422DD020680C30B8
:101D000050E8001F21F4807140E80012002AF5D14C
:101D10002068143050E8001F21F0010140E8001253
:101D2000002AF5D12068143050E8001F21F040014E
:101D300040E80012002AF5D184F84230256320687B
:101D40000C3050E8001F21F0100140E80012002A7A
:101D5000F5D1E06BFEF757FD6663A08DE18D401A6B
:101D600081B206E0A18D8142A8D1D069B842A5D147
:101D700066632046FFF7C8FEF8BDA08DE18D401ACE
:101D800081B2E08D0028F7D00029F5D020680C3012
:101D900050E8002F22F4907240E80027002FF5D180
:101DA0002068143050E8002F22F0010240E800279C
:101DB000002FF5D184F84230256320680C3050E8BC
:101DC000002F00E006E022F0100240E80023002B84
:101DD000F3D1CDE705062BD5150629D594F841009A
:101DE0002128C9D1A068B0F5805F01D12069B0B1C8
:101DF000206A411C2162216800784860E08C401E06
:101E00000004000CE084B7D12068C16821F0800193
:101E1000C1602068C16841F04001C160F8BD206A1E
:101E20000088C0F308004860206A801C2062E5E753
:101E30004006F3D55006F1D5CA68204622F040028C
:101E4000CA6084F8413000F08FF9F8BDE92C000831
:101E500070B5040004D094F84100002510B106E0EC
:101E6000012070BD84F84050204600F023F8242063
:101E700084F841002068C16821F40051C160204607
:101E800001F046F82068016921F490410161206861
:101E9000416921F02A0141612068C16841F4005183
:101EA000C1606564202084F8410084F842006563C5
:101EB000002070BD2DE9F04F87B00446142168461C
:101EC000FEF719FB6F48DFF8B8811438D4F800C06A
:101ED0006C4F022103220723DFF8ACB10025061561
:101EE0004FF480394FF0006AC44535D1D7F800C0AF
:101EF0004CF0100CC7F800C03F6807F010070597BA
:101F0000076847F001070760006800F001000590CE
:101F100050028DE8230069465846CDE90323FEF7B9
:101F200051FE5B4F59483860C7E901A5C7E9035620
:101F30007D61BD61C7E9075938467D62FEF78EFDB8
:101F400008B1FEF75EFCE763002205212520BC6393
:101F5000FEF7D6FF252053E0DFF83881C44554D181
:101F6000484F3F1FD7F800C04CF4003CC7F800C0F2
:101F70003F6807F400370597076847F001070760D7
:101F8000006800F0010005900C208DE823006946F0
:101F90005846CDE90323FEF715FE3D4F3E48603716
:101FA000D0463860C7E901A5C7E903567D61BD6128
:101FB000FD613D6238467D62FEF750FD08B1FEF7D7
:101FC00020FCE763BC63324F3348C0371830E7E882
:101FD0000208402061C72E4847F81459C030BD613F
:101FE000FD613D627D62FEF739FD08B1FEF709FC37
:101FF000A763002205212620BC63FEF781FF26206F
:10200000FEF770FF07B0BDE8F08F244B9C45F9D177
:102010003B6843F020033B603B6803F020030593DB
:10202000036843F040030360006800F0400005903F
:102030004FF484408DE823000820CDE90320694651
:102040001748FEF7BFFD1148164F6038386080050D
:10205000C7E90105C7E903567D61BD61C7E90759B5
:1020600038467D62FEF7FAFC08B1FEF7CAFBE7636B
:10207000002205214720BC63FEF742FF4720BFE74F
:1020800000100140443802400000024088640240D1
:10209000E80700200044004088600240001401402E
:1020A000001802400809002090F84230202B01D08F
:1020B0000220704721B11AB10023036300F0AEBFC4
:1020C00001207047704770472DE9F843044690F8A7
:1020D0004100984616460D46202802D00220BDE851
:1020E000F88385B17EB100206064212084F841002E
:1020F000FEF76EFEA6848146E684A0682027B0F530
:10210000805F02D003E00120E9E7206910B12E468C
:1021100000250EE000260CE08021204600F0CEFFD6
:10212000A8B9C6B116F8010B21684860E08C401EC2
:10213000E084E08C4B464FF00002CDF80080002890
:10214000EAD14FF04001204600F0B8FF40B184F8DA
:1021500041700320C3E735F8020BC0F30800E3E742
:1021600084F841700020BAE77047FEE7194808B5C7
:10217000016841F480010160016801F4800100916F
:10218000016841F4001101600068002200F40010B1
:10219000009005211020FEF7B3FE1020FEF7A2FEEE
:1021A000002205211120FEF7ABFE1120FEF79AFE5A
:1021B000002205213920FEF7A3FE3920FEF792FE0A
:1021C000002205214420FEF79BFEBDE80840442084
:1021D000FEF788BE3038024010B500224FF48171FE
:1021E000042002F05BF91B4CA06110B30022022115
:1021F000102002F053F9606118B3174A0021174804
:1022000001F00CF9144A606024320021144801F0F6
:1022100005F9114AA06048320021124801F0FEF889
:102220000D4AE0606C3200210F4801F0F7F82061A0
:1022300010BD502080F31188BFF34F8FBFF36F8F15
:10224000FEE7502080F31188BFF34F8FBFF36F8FED
:10225000FEE7000000000020C04D0008952800089F
:102260001132000871290008B52700082DE9F04354
:1022700087B014216846FEF73EF93A480024016809
:1022800041F020010160016801F020010591016821
:1022900041F080010160016801F080010591016851
:1022A00041F004010160016801F004010591016839
:1022B00041F001010160016801F00101059101682F
:1022C00041F002010160016801F00201059101681D
:1022D00041F008010160016801F008010591016801
:1022E00041F0400101600068012200F040001E4FF3
:1022F0009502059029463846FEF764FDDFF86C80AC
:102300004FF47066002231464046FEF75BFDDFF871
:1023100060900022F0214846FEF754FD009501250B
:10232000CDE90154694638460394FEF74BFCCDE9EC
:10233000005469460F480294FEF744FC0096CDE92C
:102340000154694640460394FEF73CFCF02000909F
:10235000CDE90154694648460394FEF733FC07B0C3
:10236000BDE8F0833038024000140240000C024007
:10237000001802400008024010B58AB000240794FB
:102380001C2168460894FEF7B6F822484FF08041B9
:10239000016040F24731C0E9011440F2CF71C0E959
:1023A00003148461FFF7C1FA08B1FEF72AFA079413
:1023B00007A918480894FFF797F808B1FEF721FA23
:1023C0006020CDE90004029400226946114804947B
:1023D000FFF745FA08B1FEF714FA042269460D48E2
:1023E000FFF73DFA08B1FEF70CFA082269460948E2
:1023F000FFF735FA08B1FEF704FA0C2269460548E2
:10240000FFF72DFA08B1FEF7FCF90248FFF7BCF917
:102410000AB010BD3805002010B58AB0002407941A
:102420001C2168460894FEF766F82248204901609E
:102430000121C0E9011440F2CF71C0E903148461A5
:10244000FFF773FA08B1FEF7DCF9079407A91948FA
:102450000894FFF749F808B1FEF7D3F96020CDE9F9
:10246000000402940022694612480494FFF7F7F929
:1024700008B1FEF7C6F9042269460E48FFF7EFF9E6
:1024800008B1FEF7BEF9082269460A48FFF7E7F9E6
:1024900008B1FEF7B6F90C2269460648FFF7DFF9E6
:1024A00008B1FEF7AEF90348FFF76EF90AB010BDA8
:1024B000000400408005002010B58AB00024079475
:1024C0001C2168460894FEF716F82248204901604E
:1024D0000121C0E9011440F2CF71C0E90314846105
:1024E000FFF723FA08B1FEF78CF9079407A91948FA
:1024F0000894FEF7F9FF08B1FEF783F96020CDE9F3
:10250000000402940022694612480494FFF7A7F9D8
:1025100008B1FEF776F9042269460E48FFF79FF9E5
:1025200008B1FEF76EF9082269460A48FFF797F9E5
:1025300008B1FEF766F90C2269460648FFF78FF9E5
:1025400008B1FEF75EF90348FFF71EF90AB010BDA7
:1025500000080040C805002010B5114C0F480C21A0
:1025600020604FF4E13060600020A060E060C4E9CA
:102570000401A061E0612046FFF76AFC08B1FEF7A4
:1025800040F92068C16841F01001C160BDE8104009
:102590004FF4807203490248FFF786BD00100140E6
:1025A00010070020100600200C4810B50A490160F1
:1025B0004FF416414160002181600C22C160C0E9E6
:1025C00004128161C161FFF743FC002803D0BDE81C
:1025D0001040FEF716B910BD004400405807002017
:1025E00010B5114C0F480C2120604FF4E1306060B1
:1025F0000020A060E060C4E90401A061E061204621
:10260000FFF726FC08B1FEF7FCF82068C16841F02E
:102610001001C160BDE810404FF4807203490248C8
:10262000FFF742BD00140140A00700201006002063
:10263000FEE700000EB5054B0ECB8DE80E008DF8C1
:102640000000684601F07EFB0EBD0000704E0008E1
:1026500003490860034800210160416081607047C0
:10266000C8000020885400202DE9F0410E4607469E
:102670000A2926D300251DE07C190921204600F0F7
:10268000B0FD617A884213D12078411E02290FD211
:1026900000EB40020C48618800EB420049BA20F888
:1026A000061DA18849BA4180E1790171217A417101
:1026B0006D1CADB205F10A00B042DDD9034900201E
:1026C0000880BDE8F081000088540020D40000207C
:1026D0003EB5064C1CCC8DE81C008DF800008DF832
:1026E0000210684601F02EFB3EBD0000884E000837
:1026F0003EB5084D38CD8DE838008DF80000080A49
:102700008DF802008DF803108DF80620684601F060
:1027100019FB3EBD944E000870B50D46B0F900108F
:102720009FED1F1A00EE101AB0F902001E4CF8EED1
:10273000C00A4FF6F67280EE810A00EE900AF8EEBB
:10274000E01AC1EE810ADFED171AB0EE401A00EE72
:10275000E11A00EEA10ADFED150A84ED011A21EE5F
:10276000201A84ED020A20EE200ABDEEC11ABDEE49
:10277000C00A11EE100A00EB8000400001B210EE1A
:10278000100A2180504360802A460120FFF7B0FFE5
:102790002A46B4F90210BDE870400220FFF7A8BF36
:1027A00000007A44CDCC4C3EB0000020DCA57E4336
:1027B000FEE700001CB502F055F9114E114C124D08
:1027C0004FF0FF3700903A4601A9706902F00EF809
:1027D0000128F8D1BDF9040000F018F802F042F920
:1027E000009005E000F01EF82821684601F0C0FCCA
:1027F000B4F90000B5F900108842E4D0F2E7000017
:1028000000000020CC000020CE000020002801DACB
:10281000002002E0B42800DDB42001494880704760
:10282000CC0000200A4900B5B1F90000B1F902203E
:1028300090420CD002DA00F1010001E0A0F10100A9
:10284000088000B200F09EFD02490968486300BD9F
:10285000CC0000203805002070B50C4C2068416B7E
:102860000B4AD180962141635FF00005216805F194
:10287000460088632168C863216808642820FEF741
:102880008FF96D1C1E2DF1DD70BD00003805002094
:10289000CC0000200026334D334CCCB04FF0FF3835
:1028A0002027424601A9A86901F0A0FF012834D1E0
:1028B000BDF804102C4A0DF1060001F083FA2178CE
:1028C000297050BB062928D2DFE801F02703172B17
:1028D0003239B4F8010041BA22481C300180B4F802
:1028E000031049BA41806421FFF716FF012242AB71
:1028F0004AA9812000974A9607E0FDF78BFE42AB7C
:1029000001224AA9822000974A9601F02FFA024636
:10291000642342A91548FFF7D7FB052000F042FDCC
:10292000BFE7012242AB4AA9832000974A96ECE711
:10293000012242AB4AA9842000974A96E5E7B4F801
:102940000100002340BAADF828011A464AA9686977
:1029500001F03CFE0122009742AB4BA985204B962B
:10296000D3E7000000000020F4040020A0070020AE
:10297000064D4FF480644FF47A7621462846FEF7E0
:1029800019FA304600F00EFDF7E70000001402408F
:1029900010B5002000F005F8BDE810400120AFF3AD
:1029A0000080002101F050BA10B54FF0E02000691E
:1029B00002F04AF8012803D0BDE8104001F058BDEC
:1029C00010BD000030B593B030216846FDF793FD8F
:1029D00014210CA8FDF78FFD1E480025016841F069
:1029E00080510160006800F0805011901A48016821
:1029F00041F4804101600068022400F4804011909D
:102A000001200090000401908001CDE906400820DB
:102A100008904FF4A870CDE9090404200B90684693
:102A2000FEF7AAFB08B172B6FEE70CA90F2081E8F9
:102A300031004FF4A0500F904FF4805010900521BA
:102A40000CA8FEF78FFA002801D072B6FEE713B08B
:102A500030BD00004038024000700040024801686C
:102A600041F470010160704788ED00E00148FEF715
:102A7000F2BD00006C0B0020F0B50268274B284D1A
:102A8000284E294F294C4FF0804C984209D0604580
:102A900007D0A84205D0B04203D0B84201D0A0422E
:102AA00004D122F0700E4A6842EA0E0298421BD00E
:102AB000604519D0A84217D0B04215D0B84213D003
:102AC000A04211D01A4DA8420ED01A4DA8420BD0E8
:102AD000194DA84208D0194DA84205D0184DA8425A
:102AE00002D0184DA84203D122F44075CA682A4387
:102AF0004D6922F080022A438D68C5620D688562A7
:102B0000984201D0A04201D109690163016841F0F6
:102B100004010160012141610260F0BD000001403B
:102B20000004004000080040000C00400004014088
:102B300000400140004401400048014000180040AE
:102B4000001C00400020004010B501F01F030121CF
:102B5000046A99408C430462016A9A4011430162FD
:102B600010BD0000F0B5036A026A22F001020262A1
:102B700042688469124E24F073050C682C4323F0DC
:102B800002058B682B430D4DA84201D0B04205D100
:102B900023F00807CB683B4323F00403A84201D08D
:102BA000B04205D14D6922F4407215438A692A4327
:102BB00042608461496841630362F0BD00000140E6
:102BC00000040140F0B5026A036A23F010030362B7
:102BD000436884690D6824F4E64444EA05248D685A
:102BE00022F0200242EA05120F4D104EA84201D0F9
:102BF000B04206D1CF6822F0800242EA071222F0EA
:102C00004002A84201D0B04207D14D6923F440638D
:102C100043EA85038D6943EA85034360846149681B
:102C200081630262F0BD0000000001400004014029
:102C3000F0B5026A036A23F4807303624368C469CF
:102C400022F4007224F073050C68124E2C438D6838
:102C500042EA05220E4DA84201D0B04206D1CF680B
:102C600022F4006242EA072222F48062A84201D0E4
:102C7000B04207D14D6923F4405343EA05138D69EF
:102C800043EA05134360C4614968C1630262F0BD51
:102C9000000001400004014030B5046A026A22F4D9
:102CA000805202624268C3690D6823F4E64343EA36
:102CB00005238D6824F4005444EA0534084DA842E5
:102CC00002D0084DA84204D14D6922F4804242EA64
:102CD00085124260C36149680164046230BD00002E
:102CE000000001400004014010B5806B0021C18547
:102CF000FEF76CFF10BD70B5846B2068406994F8D6
:102D00004110C0F3C0100025212904D118B1E58479
:102D1000204600F08EF82068406994F84210C0F315
:102D20008010222904D118B1E585204600F05AF818
:102D3000606C40F0100060642046FEF747FF70BDF5
:102D400010B50146806B096809684FF00002C9059B
:102D50002ED4C28501680C3151E8003F23F4807302
:102D600041E80034002CF5D10168143151E8003FEE
:102D700023F0010341E80034002CF5D1016814313F
:102D800051E8003F23F0400341E80034002CF5D126
:102D9000202180F84210016B012909D101680C3112
:102DA00051E8003F23F0100341E80034002CF5D136
:102DB0004263016B012902D0FFF784F910BD818DB8
:102DC000FEF7A2FE10BD10B5806B01214163016BBF
:102DD000012902D0FFF777F910BD818D4908FEF770
:102DE00093FE10BD01680C3151E8002F22F490725F
:102DF00041E80023002BF5D10168143151E8002F80
:102E000022F0010241E80023002BF5D1016B0129DA
:102E100009D101680C3151E8002F22F0100241E87D
:102E20000023002BF5D1202180F8421000210163FE
:102E3000704701680C3151E8002F22F0C00241E8D0
:102E40000023002BF5D1202180F84110704708B5F0
:102E500090F84210222901D0022008BD82684FF468
:102E600080539A4201D1016921B1816A9A421BD0F3
:102E70004AB10AE00268816A5268C2F308020A8015
:102E8000816A891C08E0026972B10268526802F026
:102E90007F020A70816A491C8162C18D491E090442
:102EA000090CC18503D01BE002685268F1E7016894
:102EB000CA6822F02002CA600168CA6822F48072DF
:102EC000CA6001684A6922F001024A61202180F843
:102ED000421000214163026B012A03D0FFF7F2F890
:102EE000002008BD016301680C3151E8002F22F079
:102EF000100241E80023002BF5D101680A68D206D0
:102F000002D50A6849680091818DFEF7FDFDE7E76B
:102F100070B5044600680169E26821F4405111432C
:102F200001612169A068E2690843616911430843AE
:102F30002168CA6849F20C639A430243CA60206858
:102F40004169A26921F4407111434161314920680E
:102F5000884202D03049884202D1FEF7CDF801E024
:102F6000FEF7BAF8E2690023192164253226B2F58A
:102F7000004F626828D0A0FB0101930F9200FDF77B
:102F8000D4F90146B0FBF5F06FF01802504301EBA5
:102F9000800006EB0010B0FBF5F000F0F002B1FB92
:102FA000F5F002EB0012B1FBF5F06FF01803584397
:102FB00001EB800006EB0010B0FBF5F000F00F0015
:102FC00021681044886070BDA0FB010192185B412C
:102FD000FDF7ABF90146B0FBF5F00201B1FBF5F0EE
:102FE0006FF01803584301EB800006EBC000B0FB04
:102FF000F5F000F0F80002EB4002B1FBF5F05843A9
:1030000001EB800006EBC000B0FBF5F000F007001C
:10301000D6E70000001001400014014038B581627D
:1030200004468285002013466064222284F84220F0
:10303000E56B1F4AEA63E56B1E4A2A64E56B1E4A8C
:10304000EA64E26B10650A462168E06B091DFDF732
:103050006FFD30B110206064202084F84200012010
:1030600038BD2068016840680090206948B1206838
:103070000C3050E8001F41F4807140E80012002A33
:10308000F5D12068143050E8001F41F0010140E8FC
:103090000012002AF5D12068143050E8001F41F0DA
:1030A000400140E80012002AF5D1002038BD0000A0
:1030B000412D0008C72D0008F72C00082DE9F84322
:1030C000984617460D460446089E24E0701C22D000
:1030D000FDF77EFEA0EB0800B0421AD8CEB1206802
:1030E000C168490717D5802D15D0402D13D0016830
:1030F000C94309070FD401680025406800902046A5
:10310000FFF770FE0820606484F840500120BDE89D
:10311000F8830320FBE72068006835EA000004D04C
:103120000020B842D2D00020F1E70120F9E70000EA
:103130000148FEF74DBD0000100700200148FEF7D2
:1031400047BD0000580700201CB5164C20680068D9
:10315000C00621D5002000902068016840680190D9
:103160002046FEF7FBFCE06B006840680F49C0F5A5
:10317000807082B20C4820F8022BFDF74DF90C4804
:1031800000236A460849006801F0D0FA4FF48072C3
:1031900006492046FEF788FFBDE81C400148FEF7BF
:1031A00017BD0000A0070020680A00206809002061
:1031B00018000020FEE70907090E002804DB00F1D3
:1031C000E02080F80014704700F00F0000F1E020CC
:1031D00080F8141D7047704700220F21501EFDF724
:1031E0008FBE70B50446002002468C250CE0A35C1F
:1031F00058400023C60702D085EA500000E040088E
:103200005B1C082BF6DB521C8A42F0DB70BD000011
:1032100008B5FFF721FB1B4900204A7E02B11020B0
:103220000A680AB940F00100012801D18860487697
:103230005A25154E8C272C46ADF8004000231A461F
:103240006946706901F0C2F9142000F0ABF8A41CC3
:1032500024B2BC42F0DD3C46ADF8004000231A46E3
:103260006946706901F0B2F9142000F09BF8A41EC1
:1032700024B2AC42F0DAC82000F094F8642000F0E8
:1032800091F8D8E7D804002000000020FDF7AEFD3B
:10329000FFF798FBFEF7EAFFFEF768FFFFF75CF920
:1032A000FFF782F9FFF7B8F8FFF706F9FFF764F8C0
:1032B000FFF796F900213048FEF792FB08B172B68D
:1032C000FEE704212C48FEF78BFB08B172B6FEE73F
:1032D00008212948FEF784FB08B172B6FEE70C21ED
:1032E0002548FEF77DFB08B172B6FEE700212348B2
:1032F000FEF776FB08B172B6FEE704211F48FEF721
:103300006FFB08B172B6FEE708211C48FEF768FBA8
:1033100008B172B6FEE70C211848FEF761FB08B150
:1033200072B6FEE700211648FEF75AFB08B172B6E6
:10333000FEE704211248FEF753FB08B172B6FEE720
:1033400008210F48FEF74CFB08B172B6FEE70C21CE
:103350000B48FEF745FB08B172B6FEE7FDF7BEF974
:10336000FFF716FB00F02CF8FEF736FF00F03AF8F6
:1033700000F0A2FDFEE700003805002080050020D7
:10338000C8050020002801DA002002E0B42800DD92
:10339000B420C82110FB01F0B42190FBF1F03230D1
:1033A00080B2704710B5EFF3058111B16FF00504DD
:1033B00003E0002408B100F0B5FE204610BD000077
:1033C000EFF3058010B16FF0050070470448016805
:1033D00011B14FF0FF3070470121016000207047AC
:1033E0008000002010B5EFF3058010B16FF00500EC
:1033F00010BD08480168012902D04FF0FF3010BD10
:10340000054A002182F8141D0221016000F038FFF6
:10341000002010BD800000200BE000E02DE9FF41FE
:103420004FEA01034FF00005EFF30581039549BB17
:1034300040B38027182100244AB3166806B13446E9
:1034400096691EB13146761E382E02D21679F607DD
:1034500003D0002004B0BDE8F081566906B1B7087A
:10346000D2F808C0BCF1000F0DD0D5685C2D18D380
:1034700012693AB136B18DE806103A46214601F09C
:10348000B8FA03900DE0D6685EB912694AB903AA8A
:10349000CDE90012BAB2214601F07EFA012800D02F
:1034A00003950398D6E700002DE9F041134C0F4631
:1034B0000546E6682068001D00F001FD681C07D184
:1034C00037B12168BDE8F0410D48091D00F046BD47
:1034D00020683544B5424560216805D2A06BBDE83F
:1034E000F041091D00F022BD606B091D00F01EFDBA
:1034F000A06A854200D2A562BDE8F08130000020BC
:10350000A41000202DE9F041054600F033FD2D4CBC
:10351000A068401CA06020682B4F10B1606930B3D8
:103520002BE02560A068012827D1002606EB860045
:1035300007EB800000F0ECFC761C382EF6D3234815
:1035400000F0E6FC2148143000F0E2FC1F4828306F
:1035500000F0DEFC1D483C3000F0DAFC1B48503027
:1035600000F0D6FC194860631430A06305E02068C1
:10357000E96AC06A884200D82560606A401C6062BF
:103580006864E86A2169884200D9206100EB800004
:1035900007EB8000291D00F0E1FC00F00BFD6069E5
:1035A00000280CD02068E96AC06A884207D208491E
:1035B0004FF080500860BFF34F8FBFF36F8FBDE8AF
:1035C000F081000030000020F40B00205410002097
:1035D00004ED00E038B500F0CDFC104C2068C8B90F
:1035E0000F4800F095FC0E48143000F091FC0C4898
:1035F000E060143020610A4B0020F03B009003F1A2
:10360000500210210A2000F06AFF206010B105A1CD
:1036100000F052FDBDE8384000F0CCBC6C0000204A
:10362000A8110020546D72510000000030B4026CEB
:103630000B46002A0BD0C1681144C1608468A142C6
:1036400001D30168C16030BC1846FCF7E5BE30BC50
:1036500070472DE9F041856B174604460026026C41
:1036600082B1C7B1E068FCF7D7FEE168206C091AA7
:10367000E1602268914202D2A168081AE060022F3C
:1036800016D017E02068A8B9A06801F055FA0646E0
:103690000020A0600EE06068FCF7BEFE216C606850
:1036A00008446060A168884204D32068606001E03B
:1036B00005B16D1E6D1CA5633046BDE8F08110B5E7
:1036C000044690F8590058B101280CD002280FD0B8
:1036D000502080F31188BFF34F8FBFF36F8FFEE749
:1036E000206B00F07BFC2046BDE8104000F076BC6B
:1036F00010BD000010484FF47051420706D0C01DA5
:103700000D4920F00700411AC1F570510B4A002302
:103710000144C2E900030839183A21F00701116099
:103720004B600B600B1AC0E9001393604FF0004030
:103730005360506170470000881800209C000020F2
:10374000144E154CA6F29C474FF08058DFF84C9071
:1037500012E000BF00F00EFCF068C568281D00F004
:10376000AEFBA068401EA0606068401E606000F074
:1037700021FC2846FFF7A3FF60680028EAD13868DB
:103780000128F9D9C9F80080BFF34F8FBFF36F8FBD
:10379000F2E70000901000203000002004ED00E06F
:1037A00070B51D46049C51B1C4F80020C4E90F0156
:1037B0000121204600F0C6FE84F84C5070BD246004
:1037C000F4E700002DE9F05F8846DDE90B9415462B
:1037D000834691009A460A9EA522206BFCF761FE63
:1037E0006FF00301206B01EB8501084420F007070F
:1037F000780707D0502080F31188BFF34F8FBFF3B5
:103800006F8FFEE70025B8F1000F0FD05FF00000CA
:10381000221818F8001082F8341018F8001011B1AE
:10382000401C1028F4D384F8435001E084F834504D
:10383000382E00D33726E662C4E91365201D00F058
:1038400072FB04F1180000F06EFB2461C6F1380031
:103850006462A061656584F85850524659463846FE
:1038600000F05AFA2060B9F1000F01D0C9F8004009
:10387000BDE8F09F30B5114900E011460A68824268
:10388000FBD34B685C18844203D1406818444860FD
:10389000084643681C18944209D1084C183C246817
:1038A000A24209D052681A4442600A681268026053
:1038B000814200D0086030BD0460F9E79C00002020
:1038C00070B5002441600B4D0061914206D8D11AB9
:1038D0008269914206D2011D286907E09A4203D20B
:1038E000994201D3012403E0011DE86800F01EFBAA
:1038F000204670BD6C00002010B5044600F03AFB75
:10390000A06B28B15FF0000400F054FB204610BD0E
:103910000124F9E730B589B03C4D6EE004980028E9
:1039200006DADDE90601059A90470498002864DB71
:10393000069C606910B1201D00F0C1FA03A800F0D8
:10394000D7F8024604980A2857D2DFE800F00505A8
:10395000052D334A05052D3394F8280040F0010069
:1039600084F828000599A069059B01442046FFF7CB
:10397000A7FF68B3216A2046884794F828004007CB
:103980003BD5002000900598A169002342181946F4
:10399000204601F0DBF9D8B9502080F31188BFF33D
:1039A0004F8FBFF36F8FFEE714F8280F20F0010050
:1039B000207022E094F8280040F0010084F82800EC
:1039C0000598A06128B1811813462046FFF778FFBB
:1039D00013E0502080F31188BFF34F8FBFF36F8F38
:1039E000FEE794F82800810703D4204600F0F6FA99
:1039F00003E020F0010084F82800002204A92868D0
:103A000000F0F4FE002889D109B030BD6C00002020
:103A10002DE9FC410F46054600F076FC01A800F0B8
:103A200067F80446019818B101F0FEF8BDE8FC8182
:103A3000254EAFB130690068D0B30027291B3A4644
:103A4000306800F04DFB01F0EFF80028EED11F497F
:103A50004FF080500860BFF34F8FBFF36F8FE5E7E3
:103A6000A542EBD801F0E0F8F0682746C068C468CA
:103A7000201D00F024FA94F82800410719D5A06908
:103A80002B4641193A462046FFF71AFFA8B10020FD
:103A90000346014600902A46204601F057F960B9D6
:103AA000502080F31188BFF34F8FBFF36F8FFEE775
:103AB00007E020F0010084F82800216A20468847AA
:103AC000B4E70127BAE700006C00002004ED00E035
:103AD0000648416B096829B1416BC968C9684968E2
:103AE000816270474FF0FF31FAE70000300000209C
:103AF00070B5054600F0B6FF064E0446B068844235
:103B000003D200F009F8012000E0002028602046E0
:103B1000B46070BD6C000020F8B5194D20E0C0689D
:103B2000C4680668201D00F0CAF9216A204688474B
:103B300094F82800400713D5A0693044B04206D954
:103B400024616060211DE86800F0F0F908E00020C1
:103B50000346014600903246204601F0F7F838B19E
:103B6000E86801680029DAD12969C5E90310F8BDC0
:103B7000502080F31188BFF34F8FBFF36F8FFEE7A4
:103B80006C00002008484068401C4FF0500080F353
:103B9000118804D0BFF34F8FBFF36F8FFEE7BFF3E1
:103BA0004F8FBFF36F8FFEE7A4000020074CE06843
:103BB000016841B1C0680021D0F80000FFF728FF7C
:103BC000FFF7A8FEF3E701210020F7E76C000020D3
:103BD0002DE9F041044600F0CDF994F9455004F187
:103BE000240609E0606A48B1304600F0E5FF08B1FC
:103BF00000F00CFB6D1E6DB2002DF3DC4FF0FF36B4
:103C000084F8456000F0D6F900F0B4F994F9445016
:103C100004F1100709E0206948B1384600F0CCFFF4
:103C200008B100F0F3FA6D1E6DB2002DF3DC84F8DC
:103C30004460BDE8F04100F0BDB900002DE9F0415D
:103C40000546002700F060FB324E306808B9FFF7E8
:103C500051FD706905424ED1C5B3083568070ED0D5
:103C600005F00700C0F108000544680707D05020A0
:103C700080F31188BFF34F8FBFF36F8FFEE72DB333
:103C80007068854237D82348183001460C6801E037
:103C900020460C466168A94202D221680029F7D16A
:103CA00031688C4227D00768216801606068083756
:103CB000411B10290FD96019420708D0502080F30A
:103CC0001188BFF34F8FBFF36F8FFEE713E04160A2
:103CD0006560FFF7CFFD61687068401A7060B26878
:103CE000904200D2B060706901430020C4E9000135
:103CF000F068401CF06000F097FF780707D0502074
:103D000080F31188BFF34F8FBFF36F8FFEE7384604
:103D1000BDE8F0818400002010B5031F4FF08074CF
:103D20001C601B1F21F001011960191F044B0B605F
:103D300014390A60091F6FF0020244380A6010BD8E
:103D4000853B000810B504460921FFF74AFA607266
:103D5000054832230A2221460068FEF7B5F9BDE87E
:103D600010400220FCF71CBFC80000202DE9F041E4
:103D70001646044606F10100C0B2069A1D000F4621
:103D800000F1040801D0424502D20020BDE8F081D4
:103D9000AA2129706870AC702EB127B1324639461D
:103DA000E81CFCF739FB002004E0395C401C21448E
:103DB000CCB2C0B2B042F8D3A8190D21C4700171C1
:103DC0004046E3E72DE9F04114460A46010008D0D9
:103DD0003CB1052A15D30878AA2804D00120BDE8F3
:103DE000F0810520FBE78E1816F8010C0D2801D094
:103DF0000220F4E74878471E412F02D2031D9A4261
:103E000001D00320EBE700234D1C1A46401C05E0BF
:103E100015F802C0521C8CEA030392B28242F7D317
:103E200016F8020C834201D00420D8E7887820706D
:103E300017F0FF0284F8412003D0601CC91CFCF776
:103E4000EBFA0020CBE700002DE9F041C1F340067A
:103E5000C1F38005C1F3C00401F00102B0B1144FF9
:103E60004FF480713846FCF7ADFF324639153846BD
:103E7000FCF7A8FF2A4679153846FCF7A3FF22462F
:103E8000F9143846BDE8F041FCF79CBF094F1021FA
:103E90003846FCF797FF324640213846FCF792FF40
:103EA0002A4620213846FCF78DFF22468021E8E78C
:103EB000000C024000180240FFF78EF9FEE7D0E93F
:103EC000013201699A60D0E901235A604A6882424E
:103ED00001D182684A60002202610868401E0860C1
:103EE00008687047034B036003F15C0008608020A2
:103EF00010607047D0110020044B036003F15C0098
:103F000008604FF480701060704700002C1400208F
:103F100000F108014FF0FF32C0E90112C1600161F8
:103F200000210160704700210161704730B50B68C6
:103F30005A1C02D000F1080202E0026904E02246A5
:103F4000546825689D42FAD953684B6099608A602D
:103F5000516008610168491C016030BD42684A60D7
:103F600093688B6093685960916008610168491C8F
:103F700001607047502080F31188BFF34F8FBFF36B
:103F80006F8F0A494868401C486001280CD10848D6
:103F9000006810F0FF0F07D0502080F31188BFF3A6
:103FA0004F8FBFF36F8FFEE770470000A400002023
:103FB00004ED00E00849486828B1401E486001D17E
:103FC00080F311887047502080F31188BFF34F8F22
:103FD000BFF36F8FFEE70000A400002070B500283B
:103FE0002AD0164DA0F1080460686969084207D11B
:103FF000502080F31188BFF34F8FBFF36F8FFEE720
:1040000022683AB1502080F31188BFF34F8FBFF37D
:104010006F8FFEE78843606000F076F9606869683A
:10402000084468602046FFF725FC2869401C286189
:10403000BDE8704000F0F8BD70BD000084000020B5
:104040004FF0E02000210161816105494FF47A724F
:104050000968B1FBF2F1491E416107210161704716
:104060002C00002010B5FCF73BF9114910280ED3A5
:1040700000F1E02090F8F0030A78904207D2502037
:1040800080F31188BFF34F8FBFF36F8FFEE70948AE
:104090000068896800F4E060884207D9502080F306
:1040A0001188BFF34F8FBFF36F8FFEE710BD000085
:1040B000A40000200CED00E010B5084B002200BF6A
:1040C00053F832401CB1521C082AF9D310BD43F8F2
:1040D000321003EBC201486010BD0000B40B002099
:1040E00070B515460E460446FFF744FF94F9441098
:1040F0000020491C01D184F8440094F94510491C62
:1041000001D184F84500FFF755FFA06B28B92A4676
:10411000314604F1240000F097F82046BDE87040D5
:10412000FFF756BD10B5020014D00F48006B38B130
:10413000502080F31188BFF34F8FBFF36F8FFEE7DE
:1041400000F0E2F800211046FFF7AEF900F06CFD38
:10415000002807D105494FF080500860BFF34F8F0A
:10416000BFF36F8F10BD00003000002004ED00E0B1
:1041700070B50D4604000BD095B11E4A106BB8B156
:10418000502080F31188BFF34F8FBFF36F8FFEE78E
:10419000502080F31188BFF34F8FBFF36F8FFEE77E
:1041A000502080F31188BFF34F8FBFF36F8FFEE76E
:1041B00000F0AAF8D26823685919934204D98B42B7
:1041C0000AD9914202D807E08B42FAD9881A2160B5
:1041D0000021FFF769F900E0216000F025FD0028CB
:1041E00007D105494FF080500860BFF34F8FBFF3F0
:1041F0006F8F70BD3000002004ED00E002490A6AB4
:104200000260C96841607047300000200149012008
:10421000C86170473000002010B50C4650B1094904
:1042200009681831FFF782FE2046BDE810400121E1
:10423000FFF73AB9502080F31188BFF34F8FBFF3D7
:104240006F8FFEE73000002070B514460D4668B150
:104250000A4909681831FFF781FE0CB14FF0FF35AC
:1042600021462846BDE87040FFF71EB9502080F374
:104270001188BFF34F8FBFF36F8FFEE73000002030
:1042800030B587B00024039405AA04A903A80494B8
:10429000FFF728FEDDE903010094CDE901100023BA
:1042A00015A11748059A00F0A4FB164D0028E862F6
:1042B0001FD000F01BFD012809D0401C19D150204F
:1042C00080F31188BFF34F8FBFF36F8FFEE750204D
:1042D00080F31188BFF34F8FBFF36F8F4FF0FF3024
:1042E000A86201206861EC6007B0BDE8304000F0D2
:1042F00045B807B030BD000049444C4500000000FF
:1043000041370008300000200248016B491C01635E
:104310007047000030000020164810B5016B11B145
:104320000121C16110BD0021C1610169124A01E092
:10433000B9B1491E01EB810352F82330002BF7D0AD
:1043400001EB810302EB830202F1080453685B680E
:104350005360A34201D15B685360DA680260016177
:1043600010BD502080F31188BFF34F8FBFF36F8FC4
:10437000FEE7000030000020F40B00201CB5374899
:104380000168374A914207D1502080F31188BFF36A
:104390004F8FBFF36F8FFEE700683149491E884297
:1043A00007D1502080F31188BFF34F8FBFF36F8F79
:1043B000FEE72C4908780190FF20087008788DF8F6
:1043C00000009DF800009DF8002000F0F0009042F1
:1043D00007D0502080F31188BFF34F8FBFF36F8F4A
:1043E000FEE79DF80000204C00F0500020700720F0
:1043F000A06005E09DF8002052008DF80020401ECE
:104400009DF800201206F5D4A060032807D05020A4
:1044100080F31188BFF34F8FBFF36F8FFEE74FF428
:104420004070A060019808700C482030016841F489
:1044300070010160016841F070410160FFF700FE0A
:1044400000206060FBF714FF0848016841F040411C
:104450000160FBF7F9FE00201CBD000000ED00E04C
:1044600071C20F4100E400E0A400002034EF00E03E
:1044700010B5502080F31188BFF34F8FBFF36F8FBB
:1044800000F0F6FA18B104494FF08050086000209F
:1044900080F3118810BD000004ED00E0F8B5174668
:1044A0000E46050013D005FB06F05030FFF7C6FBA3
:1044B00004000AD0002084F8460004F150023B4674
:1044C000314628460094FFF76BF92046F8BD50208E
:1044D00080F31188BFF34F8FBFF36F8FFEE738B5BE
:1044E000049D18B153B1CAB181B120E0502080F3CE
:1044F0001188BFF34F8FBFF36F8FFEE7502080F31B
:104500001188BFF34F8FBFF36F8FFEE7502080F30A
:104510001188BFF34F8FBFF36F8FFEE739B1502083
:1045200080F31188BFF34F8FBFF36F8FFEE75024E6
:104530001C46012384F846302B460094FFF730F9DF
:10454000204638BD70B50D46040025D0FFF712FD9A
:10455000D4E90F20216802FB0011A1600021A163B2
:10456000216861600A46D4E90F01401E00FB012169
:10457000E16021464FF0FF3001F8440F487004F12C
:1045800010008DB1FFF7C4FC04F12400FFF7C0FC5C
:10459000FFF710FD012070BD502080F31188BFF39C
:1045A0004F8FBFF36F8FFEE721690029F0D000F035
:1045B00003FB0028ECD004494FF080500860BFF3A3
:1045C0004F8FBFF36F8FE3E704ED00E02DE9FF4766
:1045D00082B01D468A464FF00008040003D0BAF1AD
:1045E000000F08D011E0502080F31188BFF34F8FE7
:1045F000BFF36F8FFEE7206C38B1502080F3118835
:10460000BFF34F8FBFF36F8FFEE7022D0AD1E06B30
:10461000012807D0502080F31188BFF34F8FBFF3DC
:104620006F8FFEE700F010FA3F4F4FF000094FF098
:10463000805648B9049838B1502080F31188BFF3F0
:104640004F8FBFF36F8FFEE7FFF794FCA06BE16B1A
:10465000884207D3022D05D00498D0B1B8F1000FDD
:104660001AD01EE02A4651462046FEF7F2FF616A44
:1046700019B104F1240000F09FFA20B13E60BFF3AD
:104680004F8FBFF36F8FFFF795FC012006B0BDE899
:10469000F087FFF78FFC22E06846FFF7AFFD4FF091
:1046A0000108FFF787FCFFF72FFEFFF763FC94F983
:1046B0004400401C01D184F8449094F94500401C0A
:1046C00001D184F84590FFF775FC04A9684600F015
:1046D00029F930B12046FFF77BFA00F0A5FA002057
:1046E000D4E7FFF747FCA06BE16B884213D1FFF7DB
:1046F00061FC04F110000499FFF78EFD2046FFF7DE
:1047000067FA00F091FA00289ED13E60BFF34F8F08
:10471000BFF36F8F98E7FFF74DFC2046FFF758FA7D
:1047200000F082FA90E7000004ED00E02DE9F04788
:104730001F4690468946040003D0B9F1000F08D007
:1047400011E0502080F31188BFF34F8FBFF36F8FBC
:10475000FEE7206C38B1502080F31188BFF34F8FF3
:10476000BFF36F8FFEE7022F0AD1E06B012807D05D
:10477000502080F31188BFF34F8FBFF36F8FFEE798
:10478000FFF770FC5020EFF3118680F31188BFF320
:104790004F8FBFF36F8FA06BE16B884206D3022F60
:1047A00004D0002086F31188BDE8F08794F94550C5
:1047B000A06B3A4649462046FEF74BFF681C04D0E2
:1047C0006D1C84F845500120ECE7606A0028FAD09F
:1047D00004F1240000F0F0F90028F4D0B8F1000F43
:1047E000F1D00121C8F80010EDE700002DE9F747EE
:1047F000002683B08A46040003D0BAF1000F08D027
:1048000011E0502080F31188BFF34F8FBFF36F8FFB
:10481000FEE7206C38B1502080F31188BFF34F8F32
:10482000BFF36F8FFEE700F00FF9DFF8F4804FF071
:1048300000094FF0805748B9059838B1502080F3EF
:104840001188BFF34F8FBFF36F8FFEE7FFF792FB27
:10485000A56BC5B151462046FEF7E8FE6D1EA56367
:10486000206950B104F1100000F0A6F928B1C8F891
:104870000070BFF34F8FBFF36F8FFFF79BFB0120DB
:1048800006B0BDE8F087059808B11EB106E0FFF755
:1048900091FB27E06846FFF7B1FC0126FFF78AFB92
:1048A000FFF732FDFFF766FB94F94400401C01D18D
:1048B00084F8449094F94500401C01D184F8459057
:1048C000FFF778FB05A9684600F02CF80028204681
:1048D0000AD0FFF77DF900F0A7F92046FFF70CF8A2
:1048E0000028B3D00020CBE7FFF706F890B104F121
:1048F00024000599FFF790FC2046FFF769F900F0C6
:1049000093F90028A2D1C8F80070BFF34F8FBFF30E
:104910006F8F9BE72046FFF75BF900F085F995E77D
:1049200004ED00E02DE9F0410C46050011D0C4B1C2
:10493000FFF720FB174BDA686E682068911B471C55
:1049400017D02F681B6A9F4219D0964217D80124AE
:1049500010E0502080F31188BFF34F8FBFF36F8FAB
:10496000FEE7502080F31188BFF34F8FBFF36F8FA6
:10497000FEE70024FFF71EFB2046BDE8F0818842D9
:1049800005D9401A20602846FFF738FCF1E70020DF
:104990002060DCE7300000202DE9FF5F8346DDE981
:1049A0000E87994616468A469000FFF747F905009C
:1049B0001CD05C20FFF742F9040014D000202563CE
:1049C00084F85900CDE90240CDE900874B463246D4
:1049D00051465846FEF7F6FE2046FEF793FD0120AD
:1049E00004B0BDE8F09F2846FFF7F8FA4FF0FF301B
:1049F000F6E7F0B585B0DDE90B640A9DA6B1DCB140
:104A00005C2700972663022684F85960002604AFCD
:104A1000CDE90246CDE90057FEF7D4FE2046FEF769
:104A200071FD049805B0F0BD502080F31188BFF3EC
:104A30004F8FBFF36F8FFEE7502080F31188BFF3D5
:104A40004F8FBFF36F8FFEE70548416919B1006BC7
:104A500018B1002070470120704702207047000005
:104A6000300000200148C06870470000300000207E
:104A70002DE9F0412E4C0027206B28B1A069401C85
:104A8000A0613846BDE8F081E668761CE66013D187
:104A9000606B006838B1502080F31188BFF34F8FEE
:104AA000BFF36F8FFEE7606BA16B6163A063206A49
:104AB000401C2062FFF70CF8A06ADFF8788086427D
:104AC00009D3606B0068A0B1606BC068C568686896
:104AD000864211D2A0622068C06A00EB800158F8BB
:104AE0002100012800D90127E0690028C9D0012749
:104AF000C7E74FF0FF30EDE7281DFFF7E0F9A86AA0
:104B000018B105F11800FFF7DAF9E86A216988425F
:104B100000D9206100EB800108EB8100291DFFF71F
:104B20001DFAE86A2168C96A8842CAD30127C8E722
:104B300030000020F40B002070B504004FF000019D
:104B400033D01B4D2868844207D0502080F3118851
:104B5000BFF34F8FBFF36F8FFEE7206D38B1401E5C
:104B60002065E36CE26A9A421FD040B11DE05020FC
:104B700080F31188BFF34F8FBFF36F8FFEE7201DC7
:104B8000FFF79DF9E06CE062C0F13800A061E06AD7
:104B90002969884200D92861064900EB800001EBB1
:104BA0008000211DFFF7DAF90121084670BD0000E1
:104BB00030000020F40B002070B5C068C46854B108
:104BC00004F118000646FFF77AF9144D286B50B12E
:104BD0003146134815E0502080F31188BFF34F8F02
:104BE000BFF36F8FFEE7201DFFF769F9E06A2969BF
:104BF000884200D928610B4900EB800001EB80005E
:104C0000211DFFF7ABF9E06A2968C96A884202D919
:104C10000120E86170BD002070BD00003000002060
:104C20007C100020F40B00202DE9F0472C4D0024CF
:104C30002746286B38B1FFF79DF9286B401E286383
:104C4000286B40B146E0502080F31188BFF34F8FAE
:104C5000BFF36F8FFEE7A968224E0120D1B3A6F5FE
:104C6000916980463068E0B1F068C46804F11800CA
:104C7000FFF725F9201DFFF722F9E06A296988422C
:104C800000D9286100EB800109EB8100211DFFF7AD
:104C900065F9E06A2968C96A8842E3D3C5F81C80CF
:104CA000E0E70CB1FEF714FFAC694CB14FEA08061F
:104CB000FFF7DEFE00B1EE61641EF9D10020A861AD
:104CC000E86938B10849012738070860BFF34F8FFA
:104CD000BFF36F8FFFF76EF93846BDE8F08700002D
:104CE000300000207C10002004ED00E010B586B0FC
:104CF000FEF770FC114C2068B8B1002003900490BE
:104D000005AA04A903A8FFF7F7F8DDE903210220AB
:104D10008DE8070000230AA10B48059AFFF769FEFA
:104D2000606010B106B0012010BD502080F31188E2
:104D3000BFF34F8FBFF36F8FFEE700006C000020C2
:104D4000546D722053766300AD3B00082DE9FF419E
:104D50001E46134602000A9D4FF0000016D0144C68
:104D60002768002F0FD0CDE900130292062917DA29
:104D7000FFF76AFE02284FF000030FD000226946B9
:104D80002068FFF723FC04B0BDE8F081502080F3D9
:104D90001188BFF34F8FBFF36F8FFEE72A46EEE710
:104DA0000023324669463846FFF7C0FCEBE70000B7
:104DB0006C0000204FF04070E1EE100A70470000D8
:104DC000D04E0008000000000000000000000000BD
:104DD00000000000000800001800000000000000B3
:104DE00000000000DC4E0008000000000000000091
:104DF0000000000000000000000800000B000000A0
:104E00000000000000000000EC4E00080000000060
:104E1000000000000000000000000000000800008A
:104E2000180000000000000000000000C44E000850
:104E30000000000000000000000000000000000072
:104E40000004000018000000000000000000000046
:104E500000061016000610160000000000000000FA
:104E60000102030406070809000000000102030410
:104E700000A00800000000000000000000A00900E1
:104E8000000000000000000000A000000000000082
:104E900000000000006400000000000000000000AE
:104EA000006400000000000000000000006400003A
:104EB000000000000000000000A100000000000051
:104EC000000000006E65636B5461736B00000000AE
:104ED00064656661756C745461736B0066756E5FB2
:104EE0006374726C5F7461736B000000737461743F
:104EF00075735F7461736B00184F00080000002029
:104F0000D4000000C4010008EC4F0008D4000020C9
:104F100024680000E001000800000000000000001C
:104F20000000000000000000000000000000000081
:104F30000000000000000000010000001000000060
:104F4000000000000024F400000000000000000049
:104F50000000000000000000000000000000000051
:104F60000000000000000000000000000000000041
:104F70000000000000000000000000000000000031
:104F80000000000000000000000000000000000021
:104F90000000000000000000000000000000000011
:104FA0000000000000000000000000000000000001
:104FB00000000000000000000000000000000000F1
:104FC000AAAAAAAA00000000000000000000000039
:104FD00000000000000000000000000000000000D1
:0C4FE000000000005A005A002D010000E3
:040000050800018965
:00000001FF
