:020000040800F2
:10000000206900200103000855380008F33100087A
:10001000D53600084D1700084142000800000000D6
:100020000000000000000000000000004102000885
:1000300075180008000000009D020008353A00080D
:100040001B0300081B0300081B0300081B03000818
:100050001B0300081B0300081B0300081B03000808
:100060001B0300081B0300081B0300081B030008F8
:100070001B0300081B0300081B0300081B030008E8
:10008000A1170008AD1700081B0300081B03000898
:100090001B0300081B0300081B0300081B030008C8
:1000A0001B030008F93A00081B0300081B030008A3
:1000B0001B0300081B0300081B0300081B030008A8
:1000C0001B0300081B0300081B0300081B03000898
:1000D0001B030008BD410008C94100081B030008BC
:1000E0001B0300081B0300081B0300081B03000878
:1000F0001B0300081B0300081B0300081B03000868
:100100001B0300081B0300081B0300081B03000857
:100110001B0300081B0300081B0300081B03000847
:100120001B030008B91700081B0300081B03000885
:100130001B0300081B0300081B0300081B03000827
:100140001B0300081B0300081B0300081B03000817
:10015000C51700081B0300081B030008D541000851
:100160001B0300081B0300081B0300081B030008F7
:100170001B0300081B0300081B030008000000000D
:100180001B0300081B03000800F002F800F049F808
:100190000AA090E8000C82448344AAF10107DA45E2
:1001A00001D100F03EF8AFF2090EBAE80F0013F0EB
:1001B000010F18BFFB1A43F0010318474069000004
:1001C00060690000103A24BF78C878C1FAD8520795
:1001D00024BF30C830C144BF04680C6070470000C1
:1001E0000023002400250026103A28BF78C1FBD840
:1001F000520728BF30C148BF0B607047662906F020
:100200009383002070471FB506F089FB00F0B8FC0F
:1002100004000020002106F0F5FAE0601FBD10B5D3
:1002200010BD00F0C9FD1146FFF7EDFF04F0A0FD81
:1002300000F0E7FD03B4FFF7F2FF03BC04F030F871
:100240002C4B19680868B0E8F04F80F30988BFF3B9
:100250006F8F4FF0000080F311887047000000009E
:1002600008480068006880F308884FF0000080F3B9
:10027000148862B661B6BFF34F8FBFF36F8F00DF94
:1002800000BF00BF08ED00E0DFF80C00016841F49A
:1002900070010160704700BF88ED00E0EFF3098056
:1002A000BFF36F8F134B1A681EF0100F08BF20EDBD
:1002B000108A20E9F04F106009B44FF0500080F32D
:1002C0001188BFF34F8FBFF36F8F05F04DFD4FF0D7
:1002D000000080F3118809BC19680868B0E8F04F85
:1002E0001EF0100F08BFB0EC108A80F30988BFF32E
:1002F0006F8F70472C000020EFF3058070470000DF
:100300000948804709480047FEE7FEE7FEE7FEE7A9
:10031000FEE7FEE7FEE7FEE7FEE7FEE704480549E5
:10032000054A064B70470000E93A000889010008B9
:10033000205500202069002020590020205900204D
:10034000704753EA020C00F069802DE9F04B4FF042
:100350000006002B1FBFB3FA83F503FA05F424FA55
:1003600005F65E4012BF1643B2FA82F502FA05F4B2
:10037000C5F120051EBF22FA05FC44EA0C04203515
:1003800056EA044C4FEA144418BF641C4FF00008AE
:100390004FF00009904271EB030C39D3002919BFCB
:1003A000B1FA81F701FA07F6B0FA80F700FA07F61A
:1003B000C7F120071EBF20FA07FC46EA0C062037CB
:1003C000B6FBF4FCA7EB0507103F07F01F0BCBF1C2
:1003D00020060CFA0BFB2CFA06F644BFB3460026A7
:1003E000202FA4BF5E464FF0000B5BEA060C08BF4F
:1003F0004FF0010B19EB0B09ABFB027C48EB060835
:10040000C01B06FB02CC0BFB03CC71EB0C01C1E75C
:100410000B46024641464846BDE8F08B13B54FF007
:1004200000004FF00001AFF30080BDE81C407047B2
:100430000FB4044910B503AA029800F05DFB10BC8C
:100440005DF814FB1800002070B50446856900684B
:10045000C10601D5302600E02026C00707D070BDB8
:10046000D4E9012130469047206A401C20626D1E6D
:10047000F6D570BD70B5044685690078C00707D110
:1004800070BDD4E9012120209047206A401C2062E1
:100490006D1EF6D570BD2DE9F0474FF0000A894674
:1004A0000446C0F820A02046E1688847002876D09E
:1004B000252806D0D4E901219047206A401C2062FB
:1004C000F1E7E168204600258847C4F81CA00646ED
:1004D0000027C4F818A02A2E09D0304603F0D9FE10
:1004E00038B304EB8708303EC8F8186019E059F8B3
:1004F000041B204604EB87029161E1688847012FC5
:10050000064618D1E069002820DA25F020051DE014
:10051000D8F8180000EB800006EB40003038C8F82F
:1005200018002046E1688847064603F0B2FE00281E
:10053000EED1012F0AD02E2E08D12046E16888473F
:100540007F1C0646022F45F02005C4DBA069002869
:1005500003DA404245F00105A061E80701D025F02B
:100560001005B6B1A6F14100192802D8203645F48D
:1005700000654A463146204625604D46FFF73EFE5F
:1005800058B1012806D0ED1D25F0070000F108093B
:1005900089E704E005F1040985E730468AE7206A27
:1005A000BDE8F087032A40F2308010F0030C00F021
:1005B000158011F8013BBCF1020F624498BF11F89D
:1005C00001CB00F8013B38BF11F8013BA2F1040256
:1005D00098BF00F801CB38BF00F8013B11F00303CE
:1005E00000F09C82083AC0F0088051F8043B083AB9
:1005F00051F804CBA0E80810F5E7121D5CBF51F8D4
:10060000043B40F8043BAFF30080D20724BF11F84D
:10061000013B11F801CB48BF11F8012B24BF00F8B2
:10062000013B00F801CB48BF00F8012B704702F0F6
:10063000FF0343EA032242EA024200F002B84FF00D
:1006400000020429C0F0128010F0030C00F01B809F
:10065000CCF1040CBCF1020F18BF00F8012BA8BFAD
:1006600020F8022BA1EB0C0100F00DB85FEAC17C71
:1006700024BF00F8012B00F8012B48BF00F8012B24
:1006800070474FF0000200B5134694469646203955
:1006900022BFA0E80C50A0E80C50B1F12001BFF43B
:1006A000F7AF090728BFA0E80C5048BF0CC05DF8A1
:1006B00004EB890028BF40F8042B08BF704748BFEF
:1006C00020F8022B11F0804F18BF00F8012B704763
:1006D000704770477047704770472DE9FF4F0C46D1
:1006E0001E464FF0FF378BB0D2E90001DDF8608085
:1006F0000A908A46C1F30A5505B93D4600210846CD
:100700004FF00000BAF1000F00F4400005DA00EBF2
:1007100080004FF4400101EA50004FEA9059B9F1CE
:10072000010F00DDB9460A9850EA4A000ED044F69F
:100730001050A5F2FF3545432F14B8F1000F1ED01D
:100740007542291E1EDDC9F100021CE0B8F1010F3F
:100750004FF0000001D0302103E0F24305E02154C6
:10076000401CB042FBDB30460022002121540B9993
:10077000C1F80880C1E900200FB0BDE8F08FBD1BB3
:100780006D1CDEE74A4600DA694206A800F09AFAD4
:1007900006AB93E8070003AB83E8070050460A99CD
:1007A00000F078FB8DE80700A0F500501F3800909E
:1007B0000398002D0ADD42F21F014A460844002337
:1007C00003A90390684600F0E1FD09E0A0F50050A0
:1007D0004A461F38002303A90390684600F0EBFD4A
:1007E0008DE807000004000C03D04FF0FF304108F3
:1007F00000E01046B8F1000F03D000220092154629
:100800001EE0751E05D400F0BFF9303262556D1E32
:10081000F9D5B3460122084302D000227F1C04E030
:100820002078302801D100227F1E002A099784D029
:100830001DE0112D07DA00F0A7F9303262556D1C6A
:1008400050EA0102F5D1084302D00098C8B10EE089
:100850000021681E05E0235C625C63542254401E44
:10086000491C8142F7DBAB46A81B401E09900020C3
:1008700004F80B000B98099AC0F80880C0E9002B17
:100880007AE711264FF0000857E72DE9F04F884628
:100890000446D21D22F0070191B0D1E90001CDE953
:1008A0000A0103F0CEFC02460B98C00F01D02D20A8
:1008B00007E02068810701D52B2002E0202101EA12
:1008C000C000032A099001D0072A05DB03464146F0
:1008D000204600F0B7F90BE12078800601D5E069E9
:1008E00000E00620B8F1650F814606D0B8F1660F2A
:1008F00018D0B8F1670F70D131E00020B9F1110FB5
:10090000009001DB112301E009F101030AAA01A90A
:100910000CA8FFF7E2FEDDE90C70002609F10105E5
:10092000834647E001204B4600904FF000470AAA5B
:1009300001A90CA8FFF7D1FEDDE90DB00C995D46C9
:10094000002610B909F101000D18B9EB050003D418
:10095000C0F1FF3609F10105A5EB09002BE0B9F163
:10096000010F01DA4FF001090020B9F1110F0090D9
:10097000484601DD112300E003460AAA01A90CA89C
:10098000FFF7ABFEDDE90C704D460026834620786C
:1009900000070AD4AB4500DA5D4601A8012D04DD4D
:1009A000411911F8011C302907D04F4502DA17F11F
:1009B000040F04DA012082460FE06D1EEEE7002FDF
:1009C00002DCED1B3E4403E0781CA84200DD7D1CE8
:1009D000B81B00F1010A4FF000472078000703D44C
:1009E000AA4501DB4FF0FF3A0021B7F1004F0DF1AE
:1009F00043088DF8431024D002202B23002F01DA66
:100A00007F422D230A21021EA0F1010000DC5FB10C
:100A100097FBF1FC97FBF1F201FB1C7C17460CF1F4
:100A2000300C08F801CDEEE7A8F101000370218831
:100A3000090501D5452100E06521A0F1010800F874
:100A4000011C09980FA9A1EB0807FF1D00B10120A7
:100A5000411901EBEA70A1693844081A401EA061EF
:100A60002078C00602D42046FFF7EEFC099828B192
:100A7000D4E901219047206A401C20622078C006FA
:100A800022D52046FFF7E0FC1EE0002E04DBB34534
:100A900002DD01A8805D00E03020D4E9012190470B
:100AA000206A401C2062761CAAF101005FEA000A5D
:100AB0000AD100F065F8C0680168405CD4E9012102
:100AC0009047206A401C2062281EA5F10105DCDC4D
:100AD00007E0D4E9012118F8010B9047206A401C77
:100AE0002062381EA7F10107F3DC2046FFF7C2FCA5
:100AF000032011B041E60000074B70B50D467B4462
:100B000000F08DF80446284600F04EF910B14FF081
:100B1000FF3070BD204670BD573B000010B5203A35
:100B2000C0F00B80B1E81850203AA0E81850B1E8A6
:100B30001850A0E81850BFF4F5AF5FEA027C24BF5C
:100B4000B1E81850A0E8185044BF18C918C0BDE853
:100B500010405FEA827C24BF51F8043B40F8043B1C
:100B600008BF7047D20728BF31F8023B48BF11F8D1
:100B7000012B28BF20F8023B48BF00F8012B70472B
:100B800000487047DC54002030B5B0F10A024FEA4B
:100B9000900E71F100034EEA817EB0EB0E0061EB26
:100BA00091014FEA101E4EEA017E10EB0E0041EB60
:100BB00011114FEA102E4EEA016E10EB0E0041EBC0
:100BC00011214FEA104E4EEA014E10EB0E0041EBA0
:100BD0001141401841F100014FEAD00040EA417054
:100BE0004FEAD10110EB80054FEA810444EA90748A
:100BF00044EB01046D1944EB0404521BA3414FF074
:100C0000000348BF0A3200D530BD401C41F100014D
:100C100030BD000001694A1C02610878704700B5C8
:100C20008FB0CDE901310021059105497944CDE925
:100C3000031011466846FFF72EFC0FB000BD000000
:100C4000E5FFFFFF2DE9F0411F460446032601683A
:100C5000072A01F4006004DB08B116A505E016A51B
:100C600003E008B115A500E015A521F010002060F3
:100C7000A069C01EA0610FB1401EA0612046FFF711
:100C8000E3FB4FB1D4E9012138469047206A401C6C
:100C90002062C01C206206E0206AFAE7D4E9012144
:100CA00015F8010B9047761EF8D22046FFF7E2FBBD
:100CB000BDE8F0814E414E006E616E00494E460027
:100CC000696E66002DE9F047814616468AB03548C0
:100CD00078440DC88DE80D0032487844801C03AC80
:100CE0000DC884E80D0041F69B300844372190FB85
:100CF000F1F290FBF1F5A5F1800501FB12041B3C1C
:100D000002D56442012000E00020DFF898A0804670
:100D10000027FA44AAF1BE0A0EE0E0070AD03246E4
:100D2000684607EB470101230AEB810100F043FB12
:100D30008DE8070064107F1C002CEED1194F7F4412
:100D4000AE3F19E0E80715D007EB04100DF1180AC3
:100D500090E80E008AE80E00C068F04201D19819B0
:100D600008903246012306A903A800F024FB03AB38
:100D700083E807006D10641C002DE3D14FF00103E0
:100D800032466946B8F1000F03A802D000F0FEFA1F
:100D900001E000F010FBC9E90001C9F808200AB021
:100DA000BDE8F087E05D0000007B00F08000704748
:100DB00000487047BC5400207546FFF7F9FFAE4667
:100DC00005006946534620F00700854618B020B557
:100DD000FFF7A4FABDE820404FF000064FF00007EF
:100DE0004FF000084FF0000B21F00701AC46ACE8D3
:100DF000C009ACE8C009ACE8C009ACE8C0098D4640
:100E0000704710B50446AFF300802046BDE810409F
:100E1000FFF710BA4FF0013C50F8042B51F8043B97
:100E20009A4221D1A2EB0C03934313EACC1317D1BE
:100E300050F8042B51F8043B9A4215D1A2EB0C0355
:100E4000934313EACC130BD150F8042B51F8043B15
:100E50009A4209D1A2EB0C03934313EACC13DBD0E3
:100E60004FF00000704700BFD01A01BAB1FA81F10B
:100E700001F0180122FA01F0CB40C1F12001DBB2F0
:100E8000C0B2C01A2CFA01F3D11A914311EAC3116E
:100E9000E6D170475FEA400C08BF91F0000F4FEABF
:100EA0008C234FEAC12243EA51514FEA1C5018BF2C
:100EB00000F5F0404FEA300018BF41F000415FEA12
:100EC0006C5C00F02980BCF1FF3F08BF40F080401F
:100ED0007047130C06BF12044FF0100C4FF0000CBB
:100EE000130E04BF12020CF1080C130F04BF120101
:100EF0000CF1040C930F04BF92000CF1020CD30F01
:100F000004BF52000CF1010C11464FF00002A0F199
:100F10001F00A0EB0C00704711F0004F08BF704796
:100F200031F000413FF4D5AF0B0C06BF09044FF080
:100F3000100C4FF0000C0B0E04BF09020CF1080C52
:100F40000B0F04BF09010CF1040C8B0F04BF8900C7
:100F50000CF1020CCB0F04BF49000CF1010CCCF1D9
:100F60002003A0EB0C0022FA03F302FA0CF241EA90
:100F7000030100F10100704720F07F4C80EA03007C
:100F800023F07F47ACEB070303F57C5300F00040F0
:100F900003F1FF032DE980494FEA154B09B44FEAED
:100FA000144325EA0B4E24EA03480FF2042606EB0D
:100FB000132749083E785FEA320203FB0667C7F54C
:100FC000000707FB06F64FEA54374FEAD64606F10C
:100FD000020607FB066CCCF1005C4FEA1C472CEACA
:100FE000074C07FB06F40CFB06F504EB15464FEA2D
:100FF000961634BF00204FF000404FEAD13706FB71
:1010000007FC4FEA1C4C0CFB0BF7D21B03FB0CF745
:1010100061EB07010CFB0EF7B0EB074072EB1742D8
:101020000CFB08F734BFA2EB0742B2EB074261EBBF
:1010300017414FEA0C444FEA910706FB07FC4FEAC1
:101040001C4C0CFB0BF7B0EBC74072EB573203FBA9
:101050000CF734BFA2EBC742B2EBC74261EB57318A
:101060000CFB0EF7B0EBC70072EB57720CFB08F7E6
:1010700034BFA2EBC702B2EBC70261EB5771039F0B
:101080004FEA816141EA921104EBCC044FEAD13777
:101090004FEA826206FB07FC42EA90124FEA806048
:1010A0004FEA1C4C0CFB0BF7D21B03FB0CF761EB5C
:1010B00007010CFB0EF7B0EB074072EB17420CFB7D
:1010C00008F734BFA2EB0742B2EB074261EB1741CE
:1010D0004FEA8C554FEA910704EB9C2406FB07FC72
:1010E0004FEA1C4C0CFB0BF7B0EBC74072EB5732CE
:1010F00003FB0CF734BFA2EBC742B2EBC74261EB74
:1011000057310CFB0EF7B0EBC70072EB57720CFBBC
:1011100008F734BFA2EBC702B2EBC70261EB57710D
:1011200015EB4C254FEA816141EA92114FEA826248
:101130004FEAD13742EA901206FB07FC44F1000463
:101140004FEA80604FEA1C4C0CFB0BF7D21B03FBF1
:101150000CF761EB07010CFB0EF7B0EB074072EBED
:1011600017420CFB08F734BFA2EB0742B2EB074271
:1011700061EB174115EB1C154FEA813141EA9241B1
:101180004FEA823242EA90424FEA80304FEA0C76D0
:1011900044F1000448EA03434EEA0B484FF0000EC6
:1011A000B2EB080C71EB030724BF624639464EEBE5
:1011B0000E0E4FF0000B0018524149414BEB0B0B48
:1011C000B2EB080C71EB03077BF1000B24BF624606
:1011D00039464EEB0E0E4FF0000B001852414941BC
:1011E0004BEB0B0BB2EB080C71EB03077BF1000B25
:1011F00024BF624639464EEB0E0E51EA020718BF75
:1012000046F0010616EB0E7655F1000254F100018E
:1012100003D5BDE88901BDE80088BDE88901BDE8C6
:101220000048B619524141EB0101A3F10103704797
:1012300080807F7E7D7C7B7A797877767675747313
:10124000727171706F6E6E6D6C6C6B6A6A696868D2
:10125000676666656464636362616160605F5F5E68
:101260005E5D5D5C5C5B5B5A5A59595858575756DE
:101270005655555554545353525252515150505043
:101280004F4F4F4E4E4D4D4D4C4C4C4B4B4B4A4A95
:101290004A494949484848474747474646464545D9
:1012A0004544444444434343434242424241414112
:1012B000002B9C4630D477002BD01CB54FEA370763
:1012C00003B44FF010004FF01001BAF1000F06D038
:1012D000BCF1000FDCBF40F0080040F008014FF007
:1012E00000000FBCBDE810400BF1010BBBF1010F7A
:1012F00008BF5FEA170722BF12F1010211F10101D5
:101300004FF0004143F1000300F0004043EA0000C9
:101310007047F9D35708D0E746EA064613F1400F65
:101320004FEA16461FDD13F1200FDFBF16430A46B2
:10133000002120335B42BED0C3F1200746EA0646B7
:1013400002FA07F74FEA164646EA0706C3F12007F6
:1013500022FA03F201FA07F721FA03F14FF0000332
:1013600042EA0702A7E746EA020646EA06464FEACD
:10137000164646EA0106BCBF46EA0646360C4FF062
:1013800000034FF000024FF0000194E72DE9804C7C
:101390009A46934670B491E8380007C831EA400C89
:1013A00048BF34EA430C03D5FFF7E6FDFFF780FFA3
:1013B000F0BCBDE8008C2DE9804C9A46934670B491
:1013C00091E8380007C810F0804F08BF13F0804F35
:1013D00003D100F005F8FFF76BFFF0BCBDE8008C0F
:1013E00020F07F4780EA030023F07F4C07EB0C03DB
:1013F000A3F57C5300F00040A3F1FE0392F0000F30
:1014000000F0B38095F0000F00F077802DE90149DE
:101410004FEA11404FEA144621EA004800FB06FC5F
:1014200024EA064708FB06F607FB08F800FB07F767
:1014300018EB06484CEB164C4FEA124B18EB0748DA
:101440004FEA15464CEB174022EA0B4E0BFB06FC0D
:1014500025EA06470EFB06F607FB0EFE0BFB07F719
:101460001EEB064E4CEB164C4FF000061EEB074EE3
:101470004CEB174B18EB0B0840F1000018EB0E0B70
:1014800058EB000840F100008F1A4FF000013CBFFC
:10149000C943661B14BFB5EB040C00213CBFC94314
:1014A000F61B4FEA17444EEA8E0E27EA04454FEA30
:1014B0001C4704FB07622CEA074C05FB07F70CFBF3
:1014C00005F604FB0CFC16EB074642EB174216EB45
:1014D0000C4642EB1C421BEB060658EB0202414154
:1014E00046EA9E0601D5BDE80189B619524141EB95
:1014F0000101A3F10103BDE801894FEA14454FEA58
:10150000114724EA054621EA074C05FB07F406FBD0
:1015100007F70CFB06F105FB0CFC11EB074144EB54
:1015200017444FEA124711EB0C4144EB1C4422EAEA
:10153000074C05FB07F206FB07F70CFB06F605FB5D
:101540000CFC16EB074642EB174216EB0C4642EB3F
:101550001C456A1854F1000148BF7047B619524142
:1015600041EB0101A3F10103704795F0000F37D063
:101570004FEA11424FEA144721EA024624EA074C97
:1015800002FB07F106FB07F70CFB06F402FB0CFC61
:1015900014EB074441EB17414FEA154714EB0C4499
:1015A00041EB1C4125EA074C02FB07F506FB07F758
:1015B0000CFB06F602FB0CFC16EB074645EB174549
:1015C00016EB0C4645EB1C42121951F1000148BFC5
:1015D0007047B619524141EB0101A3F10103704775
:1015E0004FEA14454FEA114724EA054621EA074C21
:1015F00005FB07F106FB07F70CFB06F24FF00006B0
:1016000005FB0CFC12EB074241EB174112EB0C42BD
:1016100051EB1C4148BF7047921841EB0101A3F107
:10162000010370472DE9F0412D4D00242868C46363
:1016300028684FF4FA6707642A4E3068C763306839
:101640000464642000F0ECFA2868C4632868046429
:101650003068C46330680464C82000F0E1FA286888
:10166000C763286804643068C46330680764C820AE
:1016700000F0D6FA2868C463286804643068C4633C
:1016800030680464C82000F0CBFA2868C463286876
:1016900007643068C76330680464C82000F0C0FA8B
:1016A0002868C463286804643068C46330680464CC
:1016B000C82000F0B5FA2868C76328680464306859
:1016C000C46330680764642000F0AAFA2868C46321
:1016D000286804643068C46330680464BDE8F0813D
:1016E000A8050020F005002070B5082002F072F96E
:1016F0000120B2EE0E0A02F04BF9134C4FF4FA65DA
:101700002068456320686E108663642003F0B8FB90
:101710002068456320688563FA2003F0B1FB2068E8
:10172000466320688563642003F0AAFB2068456354
:1017300020688563C82003F0A3FBBDE8704000204B
:10174000B2EE0E0A02F024B9F0050020FEE7000018
:1017500010B5114801F0CEFF4FF400720F490E484A
:1017600001F0F1F94FF4967000F05AFA012001F0FF
:10177000B3FF022001F0B0FF322000F051FA022145
:10178000012001F0F7FF0221084601F0F3FFBDE858
:101790001040322000F044BA80070020FE020020F2
:1017A000014800F0CBB8000070080020014800F0AC
:1017B000C5B80000D0080020014800F0BFB8000004
:1017C00030090020014800F0B9B8000010080020DE
:1017D00001681823CAB2103AB2FBF3F2054B6FF35B
:1017E0000901032A9B5CC36500D9091D8165084670
:1017F00070470000BC69000810B5014600208B69E5
:101800008A6A4FF0C07453B1B3F5005F15D072B15E
:10181000012A0CD0022A0AD0032A09D104E01AB105
:10182000012A06D0022A03D1C96AC90100D50120C4
:1018300010BDC96AA142FAD010BD002AF7D0012A12
:10184000F2D0022AF3D0032AF3D010BD30B50468D9
:10185000256825F480252560046863608368402B33
:10186000036803D099600068C26030BD9A60006868
:10187000C16030BD704772B6FEE700000048704797
:10188000E40000202DE9F0410446876D00F0E4FA01
:10189000064694F835000025022806D080206065B1
:1018A00084F834500120BDE8F0812068016821F0FF
:1018B000160101602068416921F080014161206CBE
:1018C00008B9A06C20B12068016821F0080101600E
:1018D0002068016821F0010101600CE000F0BCFA11
:1018E000801B052807D920206065032084F8350077
:1018F00084F83450D7E720680068C007EED194F828
:101900005C103F208840B860012084F8350084F8DE
:1019100034500020C7E790F83510022903D0802109
:10192000416501207047052180F835100068016885
:1019300021F0010101600020704700002DE9F8430B
:1019400004464FF00009CDF8009063484FF416515B
:10195000A56D0068B0FBF1F72E6894F85C100820C4
:1019600000FA01F131420FD021680A6852070BD505
:101970000A6822F004020A6094F85C108840A860AB
:10198000606D40F00100606594F85C104FF0010854
:1019900008FA01F0304208D021684969090604D5E7
:1019A000A860606D40F00200606594F85C1004204F
:1019B0008840304208D021680968890704D5A860AA
:1019C000606D40F00400606594F85C101020884061
:1019D000304218D021680968090714D5A86020682A
:1019E0000168490304D50068000308D5A16C07E02D
:1019F0000168C90503D4016821F008010160216C68
:101A000009B12046884794F85C1020208840304275
:101A100031D021680968C9062DD5A86094F8350031
:101A200005282068016806D0490347D500680003EF
:101A30001DD4616C1CE021F0160101602068416931
:101A400021F080014161206C08B9A06C20B12068B0
:101A5000016821F00801016094F85C103F20884083
:101A6000A86084F8358084F83490216D1FE0E16B24
:101A700009B120468847606D00282BD0606DC007F3
:101A800014D0052084F835002068016821F0010198
:101A900001600098401C0090B84203D8206800689C
:101AA000C007F6D184F8358084F83490E16C0029C1
:101AB00010D001B02046BDE8F04308470168C905D1
:101AC000D5D4016821F01001016084F8358084F8D4
:101AD0003490CCE7BDE8F883280000202DE9F041E0
:101AE000044600F0B9F906465CB1022084F83500DE
:101AF000002584F834502068016821F0010101605C
:101B00000DE00120BDE8F08100F0A6F9801B05285A
:101B100005D920206065032084F83500F2E72068AD
:101B20000068C007F0D12268116820480140D4E95C
:101B300001031843D4E90336334318436369184358
:101B4000A3691843E3691843236A18430843616A89
:101B5000042903D1D4E90B1319430843106020680A
:101B60004069666A20F0070130460E4301270428C9
:101B70000CD1A06A0643E06A40B12046FFF73CFE64
:101B800020B14020606584F83570BAE7206846616E
:101B90002046FFF71DFE94F85C203F2191408160B4
:101BA000656584F835700020ACE700003F8010F0D8
:101BB0002DE9F0410446866D90F834000025012897
:101BC0000DD0012084F8340094F835700020012FE6
:101BD00007D084F8340002252846BDE8F0810220B1
:101BE000FBE7022784F8357060652046FFF72EFE7C
:101BF00094F85C103F208840B0602068016841F094
:101C000016010160206C20B12068016841F00801D4
:101C100001602068016841F001010160DCE700001B
:101C200070B5044600F018F90546601C02D004485F
:101C30000078044400F010F9401BA042FAD370BDB4
:101C40001C0000202DE9F84FDFF8BCA1002201257F
:101C500003264FF00F090AF1040BAAF1040E00BF8E
:101C60000B6805FA02F42340A34270D10F7907F004
:101C70000307012F01D0022F16D187684FEA4208CF
:101C800006FA08FC27EA0C07D1F80CC00CFA08FC8D
:101C90004CEA070CC0F808C04768A7430C79C4F3A6
:101CA000001494403C4344600C79E443A4070AD0F8
:101CB000C4684FEA420C06FA0CF7BC438F6807FA77
:101CC0000CF72743C7600C7904F00304022C12D1EF
:101CD000D40800EB840CDCF820405707FF0E09FA0B
:101CE00007F824EA0804D1F8108008FA07F848EA4F
:101CF0000408CCF8208004684FEA420C06FA0CF77E
:101D0000BC430F7907F0030707FA0CF72743076076
:101D10004C6814F4403F70D03C4C276847F480472F
:101D20002760246822F0030704F480440094384CB0
:101D300007EB040CDCF8084897074FEA177809FA14
:101D400008F7BC43334FB84202D1002724E054E0E7
:101D5000314FB84201D101271EE0304FB84201D1C6
:101D6000022719E02E4FB84201D1032714E02D4F6E
:101D7000B84201D104270FE02B4FB84201D105270B
:101D80000AE02A4FB84201D1062705E0284FB842A1
:101D900001D1072700E0082707FA08F72743CCF806
:101DA0000878DAF800405746D1F804C09C435FEA4F
:101DB000CC2C00D51C433C60DBF800405F46D1F8DA
:101DC00004C09C435FEA8C2C00D51C433C60DEF8C9
:101DD00000407746D1F804C09C435FEA8C3C00D5B4
:101DE0001C433C60084F083F3C68D1F804C09C434A
:101DF0005FEACC3C00D51C433C60521C102AFFF427
:101E00002FAFBDE8F88F0000083C01404438024085
:101E1000003001400000024000040240000802407F
:101E2000000C024000100240001402400018024062
:101E3000001C02400069084000D001207047426940
:101E400021EA02030A4043EA0241816170470AB174
:101E5000816170470904FBE7014880687047000012
:101E60001C0000200248816802781144816070479C
:101E70001C0000200B4810B5016841F4007101609E
:101E8000016841F480610160016841F48071016082
:101E9000032000F099F80F2000F006F800F04AF84F
:101EA000002010BD003C024030B505461C4887B0FC
:101EB0000024016841F001010160006806A900F0FA
:101EC0000100009001A800F02BF900F059F9154924
:101ED0004000B0FBF1F11548134A491E026040F280
:101EE000E732C0E90324C0E90114846100F088FBF3
:101EF000040012D10D4800F0B1FB04000DD11920EF
:101F000000F034F8102D07D200222946192000F0E5
:101F10003BF80748056000E0012407B0204630BDCB
:101F20004438024040420F0000000140940B002062
:101F3000200000200C4882B0016841F4804101601B
:101F4000006800F4804000900748001F016841F0DD
:101F5000805101600068002200F0805000900F2145
:101F6000901E02B000F010B844380240002809DB8F
:101F700000F01F02012191404009800000F1E020A3
:101F8000C0F8001170470000F0B40E4B1B680C46FF
:101F9000C3F30223C3F10705042D00D90425191D3D
:101FA000072901D2002300E0DB1E012606FA05F115
:101FB000491E214099409E40761E16403143F0BC98
:101FC00002F057B90CED00E0064900F0070208687E
:101FD0004FF6FF03184040EA0220034A104308600E
:101FE000704700000CED00E00000FA052DE9F04715
:101FF0000E46050065D0DFF81481D8F80000F7B26E
:1020000000F00700B04207D288F80070D8F800004E
:1020100000F00700B04254D128683D4C810712D52A
:10202000400703D5206840F4E0502060287800077E
:1020300003D5206840F4604020602068A96820F043
:10204000F000084320602878C0072DD03049686828
:102050000839012812D0022813D0032811D00968AA
:10206000890700292DDA216821F00301014321604D
:10207000FFF7F2FE814641F2883A0EE009688903D3
:10208000EFE709688901ECE7FFF7E6FEA0EB09013D
:10209000514502D90320BDE8F0872068696800F047
:1020A0000C00B0EB810FEFD1D8F80010404601F0E2
:1020B0000701B14207D90770006800F00700B0427D
:1020C00001D00120E7E72878400705D52068E968B6
:1020D00020F4E050084320602878000706D52068E7
:1020E000296920F4604040EAC100206000F058F8FF
:1020F0002168084AC1F30311515CC84006490860D1
:1021000006480068FFF7D0FE0020C4E7003C02400C
:1021100008380240C4690008280000202000002080
:102120000F2202600C4A136803F003034360136834
:1021300003F0F0038360136803F4E053C360126894
:102140004FF4E05303EAD20202610448006800F051
:10215000070008607047000008380240003C024059
:102160000448054900680968044AC1F38221515CAA
:10217000C84070472800002008380240D469000891
:102180000448054900680968044AC1F34231515CBA
:10219000C84070472800002008380240D469000871
:1021A000154810B5006810F00C02144813D0411007
:1021B000042A0FD0082A0ED10F4C241F226823684E
:1021C00002F03F025B0207D52068C0F38810A0FB35
:1021D000010106E0084610BD2168C1F38811A1FB8A
:1021E00000010023FEF7ADF82168C1F30141491C4D
:1021F0004900B0FBF1F010BD083802400024F400A3
:102200002DE9F84F04006ED02078DFF84C93C0071A
:10221000A9F104054AD009F104000168C1F3810164
:10222000012908D00068C0F3810002280AD1D9F83A
:102230000000400206D52868800337D56068002872
:10224000E1D033E06068B0F5803F10D0B0F5A02F4A
:10225000286810D020F480302860286820F480207E
:1022600028606068A8B1FFF7F7FD06460DE0286812
:1022700040F48030F4E740F480202860F7E700BFA6
:10228000FFF7EAFD801B642873D828688003F7D520
:102290000CE0FFF7E1FD064605E000BFFFF7DCFDBF
:1022A000801B6428F0D828688003F7D42078DFF8F2
:1022B000AC8280074FF0000A3ED5A748001D016898
:1022C00011F00C0F08D00068C0F3810002280BD178
:1022D000D9F80000400207D42868800716D5E068C6
:1022E000012800D112E033E1E068B8B10120C8F85C
:1022F0000000FFF7B1FD064605E000BFFFF7ACFDAB
:10230000801B0228C0D828688007F7D52868216973
:1023100020F0F80040EAC10028600DE0C8F800A0F5
:10232000FFF79AFD064604E0FFF796FD801B0228A2
:102330001FD828688007F7D42078000722D5864F59
:1023400087486169703771B101210160FFF784FD31
:10235000064604E0FFF780FD801B022809D8386894
:102360008007F7D50EE0C0F800A0FFF775FD064620
:1023700005E082E0FFF770FD801B02287DD83868F9
:102380008007F7D42078400768D5DFF8CCB1002764
:102390000BF13C0BDBF80000C0000BD4DBF80010A5
:1023A00041F08051CBF80010DBF80000012700F06D
:1023B000805000906B4E3068C00510D4306840F4F7
:1023C00080703060FFF748FD009005E0FFF744FDA6
:1023D0000099401A022850D83068C005F6D55E4EE4
:1023E000A0686C3601280FD00528306810D020F086
:1023F00001003060306820F004003060A068B8B19F
:10240000FFF72AFD00900FE0306840F00100F4E78C
:1024100040F004003060F7E7FFF71EFD0099411A15
:1024200041F28830814266D830688007F4D50EE0EA
:10243000FFF712FD009007E0FFF70EFD0099411A2B
:1024400041F28830814256D830688007F4D42FB1E9
:10245000DBF8001021F08051CBF80010A069C8B360
:102460003D49091D0968C1F3810102294AD00228AA
:10247000504607D0C8F8600000E03CE0FFF7ECFCF5
:1024800004463BE04746C8F86000FFF7E5FC064617
:1024900005E000BFFFF7E0FC801B02282BD828686E
:1024A0008001F7D4D4E907010843A16A2E4A4908FC
:1024B00002EB0141626A41EA8211084394F82C1050
:1024C00040EA0161C9F8001001203866FFF7C4FC3A
:1024D000044606E03EE000BFFFF7BEFC001B0228FA
:1024E00009D828688001F7D534E000BFFFF7B4FCB5
:1024F000001B022802D90320BDE8F88F286880015C
:10250000F4D427E00128F7D0D9F80000E26900F4FC
:10251000800191421CD1226A00F03F01914217D103
:1025200047F6C071626A0140B1EB821F10D1A26A06
:102530004FF0FF3300F4403103EB5202B1EB024F96
:1025400006D194F82C1000F07060B0EB016F01D050
:102550000120D1E70020CFE70438024000004742C5
:10256000800E4742007000400000FFFF7047704738
:1025700070B590F83C20012A32D0012480F83C400C
:10258000022280F83D2003685A689D6822F0700698
:102590000A6832435A60134B02689A4214D0B2F16F
:1025A000804F11D0104B9A420ED0104B9A420BD054
:1025B0000F4B9A4208D00F4B9A4205D00E4B9A42CD
:1025C00002D00E4B9A4204D1496825F0800319438A
:1025D000916080F83D40002180F83C10084670BDB5
:1025E000022070BD000001400004004000080040CF
:1025F000000C004000040140004001400018004071
:1026000010B5040003D094F83D0010B107E001209C
:1026100010BD002084F83C00204600F01EF8022087
:1026200084F83D00211D206801F06CFA012084F837
:10263000460084F83E0084F83F0084F8400084F8A7
:10264000410084F8420084F8430084F8440084F890
:10265000450084F83D00002010BD704790F83D1003
:10266000012901D001207047022180F83D10016846
:10267000CA6842F00102CA6000681149884214D059
:10268000B0F1804F11D00F4988420ED00E498842D8
:102690000BD00E49884208D00D49884205D00D491B
:1026A000884202D00C49884204D1816801F00701B8
:1026B000062903D0016841F0010101600020704744
:1026C000000001400004004000080040000C0040F1
:1026D00000040140004001400018004070472DE90F
:1026E000F04104460068C66805694FF00007A90775
:1026F00013D5B10711D5F91E01610120207720689B
:1027000080698007204602D0FFF7E8FF04E000F070
:10271000E9F8204600F0A6F92777680716D5700774
:1027200014D521686FF0040008610220207720682A
:10273000806910F4407F204602D0FFF7CFFF04E00D
:1027400000F0D0F8204600F08DF92777280715D53E
:10275000300713D521686FF0080008610420207746
:102760002068C0698007204602D0FFF7B7FF04E069
:1027700000F0B8F8204600F075F92777E80616D57E
:10278000F00614D521686FF010000861082020774A
:102790002068C06910F4407F204602D0FFF79EFFFA
:1027A00004E000F09FF8204600F05CF92777E80786
:1027B00008D0F00706D021686FF0010008612046BC
:1027C00000F0B6F9280608D5300606D521686FF066
:1027D000800008612046FFF7C9FE680608D570062C
:1027E00006D521686FF040000861204600F0AAF984
:1027F000A8060AD5B00608D521686FF02000086148
:102800002046BDE8F041FFF7B2BEBDE8F081000010
:1028100070B586B0044614216846FDF732FF216882
:10282000002529480224B1F1804F11D0274A914256
:1028300036D1016841F0040101600068694600F08A
:10284000040005904FF470708DE83100204838E0A6
:10285000016841F001010160016801F00101059189
:10286000016841F0020101600068012600F00200E9
:10287000059048F202008DE83100CDE90356694623
:102880001448FFF7DFF94FF440608DE83100CDE9DF
:1028900003561148694600BFFFF7D4F906B070BD72
:1028A0000E4A9142FAD1016841F0080101600068C6
:1028B000694600F0080005904FF470408DE8310043
:1028C0000748CDE90354E7E73038024000040040F0
:1028D00000080240000002400004024000080040DE
:1028E000000C0240704770B5044690F83C0000268A
:1028F0000D4601280FD0012084F83C006AB1042A5B
:102900001DD0082A2FD00C2A3FD00126002084F8A1
:102910003C00304670BD022070BD206801F068F9AF
:102920002068816941F0080181612068816921F096
:1029300004018161206881692A69114311E02068DE
:1029400001F086F92068816941F4006181612068A5
:10295000816921F480618161206881692A6941EA85
:1029600002218161D2E7206801F0A8F92068C169DD
:1029700041F00801C1612068C16921F00401C16111
:102980002068C1692A69114311E0206801F0CAF981
:102990002068C16941F40061C1612068C16921F406
:1029A0008061C1612068C1692A6941EA0221C1616F
:1029B000ACE710B5040003D094F83D0010B107E077
:1029C000012010BD002084F83C00204600F01EF8D5
:1029D000022084F83D00211D206801F093F80120B9
:1029E00084F8460084F83E0084F83F0084F84000F4
:1029F00084F8410084F8420084F8430084F84400DD
:102A000084F8450084F83D00002010BD08B5016839
:102A10001148B1F1804F0BD0104A914210D101689A
:102A200041F002010160006800F00200009008BD62
:102A3000016841F001010160006800F00100F5E764
:102A4000074A9142F3D1016841F004010160006836
:102A500000F00400EAE700004038024000040040B3
:102A6000000800407047000010B50446022249B13A
:102A700004290ED0082913D094F84100012816D05B
:102A8000012010BD94F83E000128F9D184F83E20C1
:102A90000FE094F83F000128F2D184F83F2008E0CD
:102AA00094F840000128EBD184F8402001E084F83C
:102AB00041200122206801F08DF816492068164A4D
:102AC000884201D0904203D1436C43F400434364F5
:102AD0002068884213D0B0F1804F10D00F4988424F
:102AE0000DD00F4988420AD00E49884207D0904243
:102AF00005D00D49884202D00C49884204D1816832
:102B000001F00701062903D0016841F001010160CD
:102B1000002010BD000001400004014000040040FE
:102B200000080040000C0040004001400018004038
:102B300000680349884201D1FFF794B9704700004B
:102B400000000140704738B5044690F84200202844
:102B500001D0022038BD51B14AB1012020630020CC
:102B60006063204601F0A0FA216B012901D0012009
:102B700038BD21680A684968009121680C3151E824
:102B8000002F42F0100241E80023002BF5D138BDA0
:102B90002DE9F0410D46114988421CD1002180F8F1
:102BA00040100F4C4FF4007631462580A01CFDF7F5
:102BB00046FD04F202212A460F46A01CFDF7F2FC56
:102BC0002946A01C00F0A2FD32463946BDE8F0417E
:102BD0000248FFF7B8BFBDE8F08100008007002081
:102BE000FC00002010B504460068406994F84110CC
:102BF000C0F3C010212911D180B12068143050E8F1
:102C0000001F21F0800140E80012002AF5D1A06BDE
:102C100008B1FEF737FE204601F051F920684069FF
:102C200094F84210C0F38010222911D180B120689D
:102C3000143050E8001F21F0400140E80012002A43
:102C4000F5D1E06B08B1FEF71DFE204601F010F94A
:102C5000002010BD70470000F8B501680446086800
:102C6000CA684B6910F00F0F4FF0000559D003F000
:102C7000010602F49077374365D0C10705D0D1052E
:102C800003D5616C41F001016164410705D5D907A5
:102C900003D0616C41F002016164810705D5D90759
:102CA00003D0616C41F004016164010707D502F0B3
:102CB0002001314303D0616C41F008016164616C13
:102CC00000293AD0800604D5900602D5204601F0AE
:102CD00004F920684069616CC0F38010090700D4D2
:102CE00060B3204601F0C4F820684069400621D551
:102CF0002068143050E8001F21F0400140E8001225
:102D0000002AF5D1E06BA8B172490165E06BFEF7CE
:102D100002FE002811D0E06B016D01B0BDE8F0406B
:102D2000084783060FD593060DD52046BDE8F84029
:102D300001F0D3B82046FFF78DFFF8BD2046FFF71E
:102D400089FF6564F8BD266B2023012E7ED1C6065F
:102D50007CD5D6067AD508684868009048694FF057
:102D6000020640064DD5E26B106840684FF480774C
:102D70000004000C3AD0A18D814237D9E085D0699A
:102D8000B8422DD020680C3050E8001F21F480712B
:102D900040E80012002AF5D12068143050E8001FE6
:102DA00021F0010140E80012002AF5D1206814301A
:102DB00050E8001F21F0400140E80012002AF5D140
:102DC00084F84230256320680C3050E8001F21F061
:102DD000100140E80012002AF5D1E06BFEF752FD29
:102DE0006663A08DE18D401A81B206E0A18D81421B
:102DF000A8D1D069B842A5D166632046FFF7C8FEC6
:102E0000F8BDA08DE18D401A81B2E08D0028F7D089
:102E10000029F5D020680C3050E8002F22F4907281
:102E200040E80027002FF5D12068143050E8002F2B
:102E300022F0010240E80027002FF5D184F842304B
:102E4000256320680C3050E8002F00E006E022F0F7
:102E5000100240E80023002BF3D1CDE705062BD567
:102E6000150629D594F841002128C9D1A068B0F5EC
:102E7000805F01D12069B0B1206A411C21622168C4
:102E800000784860E08C401E0004000CE084B7D15C
:102E90002068C16821F08001C1602068C16841F0EC
:102EA0004001C160F8BD206A0088C0F30800486096
:102EB000206A801C2062E5E74006F3D55006F1D574
:102EC000CA68204622F04002CA6084F8413000F00F
:102ED0008FF9F8BD753D000870B5040004D094F872
:102EE0004100002510B106E0012070BD84F840507B
:102EF000204600F023F8242084F841002068C168AF
:102F000021F40051C160204601F048F820680169B1
:102F100021F4904101612068416921F02A01416159
:102F20002068C16841F40051C1606564202084F8C4
:102F3000410084F842006563002070BD2DE9F04F28
:102F400087B0044614216846FDF79BFB6F48DFF805
:102F5000B8811438D4F800C06C4F02210322072333
:102F6000DFF8ACB1002506154FF480394FF0006A48
:102F7000C44535D1D7F800C04CF0100CC7F800C0DC
:102F80003F6807F010070597076847F001070760DB
:102F9000006800F00100059050028DE823006946AA
:102FA0005846CDE90323FEF74DFE5B4F5948386084
:102FB000C7E901A5C7E903567D61BD61C7E90759A6
:102FC00038467D62FEF78AFD08B1FEF754FCE763E0
:102FD000002205212520BC63FEF7D6FF252053E003
:102FE000DFF83881C44554D1484F3F1FD7F800C09F
:102FF0004CF4003CC7F800C03F6807F40037059761
:10300000076847F001070760006800F001000590BD
:103010000C208DE8230069465846CDE90323FEF7CE
:1030200011FE3D4F3E486037D0463860C7E901A5E4
:10303000C7E903567D61BD61FD613D6238467D6231
:10304000FEF74CFD08B1FEF716FCE763BC63324F98
:103050003348C0371830E7E80208402061C72E48DF
:1030600047F81459C030BD61FD613D627D62FEF7D5
:1030700035FD08B1FEF7FFFBA763002205212620DE
:10308000BC63FEF781FF2620FEF770FF07B0BDE8A6
:10309000F08F244B9C45F9D13B6843F020033B6003
:1030A0003B6803F020030593036843F0400303608B
:1030B000006800F0400005904FF484408DE8230044
:1030C0000820CDE9032069461748FEF7BBFD1148EB
:1030D000164F603838608005C7E90105C7E9035617
:1030E0007D61BD61C7E9075938467D62FEF7F6FC90
:1030F00008B1FEF7C0FBE763002205214720BC634F
:10310000FEF742FF4720BFE700100140443802406D
:103110000000024088640240100800200044004083
:10312000886002400014014000180240300900206D
:1031300090F84230202B01D00220704721B11AB103
:103140000023036300F0B0BF012070477047704751
:103150002DE9F843044690F84100984616460D467E
:10316000202802D00220BDE8F88385B17EB100207E
:103170006064212084F84100FEF76EFEA68481463B
:10318000E684A0682027B0F5805F02D003E001202C
:10319000E9E7206910B12E4600250EE000260CE07C
:1031A0008021204600F0D0FFA8B9C6B116F8010B67
:1031B00021684860E08C401EE084E08C4B464FF074
:1031C0000002CDF800800028EAD14FF040012046EF
:1031D00000F0BAFF40B184F841700320C3E735F82E
:1031E000020BC0F30800E3E784F841700020BAE75F
:1031F0007047FEE7194808B5016841F48001016095
:10320000016801F480010091016841F4001101603E
:103210000068002200F40010009005211020FEF745
:10322000B3FE1020FEF7A2FE002205211120FEF7BA
:10323000ABFE1120FEF79AFE002205213920FEF791
:10324000A3FE3920FEF792FE002205214420FEF75E
:103250009BFEBDE808404420FEF788BE303802409F
:1032600010B500224FF48171042002F03FFE134C90
:103270002061D8B1124A0021124801F03DFE104AE7
:10328000206024320021104801F036FE0C4A6060B4
:10329000483200210D4801F02FFE094AA0606C322F
:1032A00000210B4801F028FEE06010BD502080F3A3
:1032B0001188BFF34F8FBFF36F8FFEE70000002030
:1032C0002C690008593800086D460008713900085B
:1032D000613900082DE9F04786B014216846FDF7F2
:1032E000D0F948480024016841F0200101600168DC
:1032F00001F020010591016841F080010160016841
:1033000001F080010591016841F00401016001684C
:1033100001F004010591016841F0010101600168BB
:1033200001F001010591016841F0020101600168AD
:1033300001F002010591016841F008010160016896
:1033400001F008010591016841F040010160006849
:10335000012200F040002C4F950205902946384686
:10336000FEF775FDDFF8A4804FF470660022314649
:103370004046FEF76CFDDFF898900022F0214846A9
:10338000FEF765FDDFF88CA00022C0215046FEF755
:103390005EFD00950125CDE9015469463846039448
:1033A000FEF750FCCDE9005469461B480294FEF735
:1033B00049FC0096CDE90154694640460394FEF766
:1033C00041FCF0200090CDE9015469464846039441
:1033D000FEF738FC402000901126CDE9016502255A
:1033E000694650460395FEF72DFC8020CDE9000686
:1033F00069465046CDE90245FEF724FC06B0BDE81B
:10340000F08700003038024000140240000C0240F7
:1034100000180240000402400008024010B58AB0C3
:10342000002407941C2168460894FDF72AF92248D5
:103430004FF08041016040F24731C0E9011440F291
:10344000CF71C0E903148461FFF7B3FA08B1FEF746
:1034500012FA079407A918480894FFF789F808B1E9
:10346000FEF709FA6020CDE90004029400226946C3
:1034700011480494FFF737FA08B1FEF7FCF904226B
:1034800069460D48FFF72FFA08B1FEF7F4F9082254
:1034900069460948FFF727FA08B1FEF7ECF90C2254
:1034A00069460548FFF71FFA08B1FEF7E4F902483C
:1034B000FFF7AEF90AB010BD6005002010B58AB064
:1034C000002407941C2168460894FDF7DAF8224886
:1034D000204901600121C0E9011440F2CF71C0E927
:1034E00003148461FFF765FA08B1FEF7C4F9079485
:1034F00007A919480894FFF73BF808B1FEF7BBF994
:103500006020CDE900040294002269461248049428
:10351000FFF7E9F908B1FEF7AEF9042269460E4853
:10352000FFF7E1F908B1FEF7A6F9082269460A4853
:10353000FFF7D9F908B1FEF79EF90C226946064853
:10354000FFF7D1F908B1FEF796F90348FFF760F9E4
:103550000AB010BD00040040A805002010B58AB0D4
:10356000002407941C2168460894FDF78AF8224835
:10357000204901600121C0E9011440F2CF71C0E986
:1035800003148461FFF715FA08B1FEF774F9079484
:1035900007A919480894FEF7EBFF08B1FEF76BF98D
:1035A0006020CDE900040294002269461248049488
:1035B000FFF799F908B1FEF75EF9042269460E4853
:1035C000FFF791F908B1FEF756F9082269460A4853
:1035D000FFF789F908B1FEF74EF90C226946064853
:1035E000FFF781F908B1FEF746F90348FFF710F934
:1035F0000AB010BD00080040F005002010B5114CC5
:103600000F480C2120604FF4E13060600020A06082
:10361000E060C4E90401A061E0612046FFF75CFCC2
:1036200008B1FEF728F92068C16841F01001C160B7
:10363000BDE810404FF4807203490248FFF778BD9F
:103640000010014038070020380600200C4810B553
:103650000A4901604FF416414160002181600C224B
:10366000C160C0E904128161C161FFF735FC002827
:1036700003D0BDE81040FEF7FEB810BD0044004086
:103680008007002010B5114C0F480C2120604FF42A
:10369000E13060600020A060E060C4E90401A06146
:1036A000E0612046FFF718FC08B1FEF7E4F8206857
:1036B000C16841F01001C160BDE810404FF4807254
:1036C00003490248FFF734BD00140140C807002039
:1036D00038060020FEE700000EB5054B0ECB8DE846
:1036E0000E008DF80000684602F09AF80EBD00004A
:1036F000DC6900080349086003480021016041605B
:1037000081607047C4000020B05400202DE9F041D2
:103710000E4607460A2926D300251DE07C190921FB
:10372000204600F0A2FE617A884213D12078411E23
:1037300002290FD200EB40020C48618800EB4200E6
:1037400049BA20F8061DA18849BA4180E179017182
:10375000217A41716D1CADB205F10A00B042DDD98C
:10376000034900200880BDE8F0810000B05400202B
:10377000FC0000203EB5064C1CCC8DE81C008DF8EA
:1037800000008DF80210684602F04AF83EBD0000C5
:10379000F46900083EB5084D38CD8DE838008DF845
:1037A0000000080A8DF802008DF803108DF806203D
:1037B000684602F035F83EBD006A000870B50D4657
:1037C000B0F900109FED1F1A00EE101AB0F90200B8
:1037D0001E4CF8EEC00A4FF6F67280EE810A00EE3B
:1037E000900AF8EEE01AC1EE810ADFED171AB0EE8A
:1037F000401A00EEE11A00EEA10ADFED150A84ED91
:10380000011A21EE201A84ED020A20EE200ABDEEF4
:10381000C11ABDEEC00A11EE100A00EB8000400094
:1038200001B210EE100A2180504360802A46012028
:10383000FFF7B0FF2A46B4F90210BDE8704002203D
:10384000FFF7A8BF00007A44CDCC4C3EAC0000206E
:10385000DCA57E43FEE70000CCB02DA0FCF7E8FD20
:10386000304F314C00254FF0FF3820262FA0FCF7B9
:10387000DFFD424601A9386902F0E0FC012835D19C
:10388000BDF80410284A0DF1060002F009F868BBE3
:103890002078012806D0022818D003282AD004282E
:1038A00024D12EE0B4F8010041BA1E481430018042
:1038B000B4F8031049BA41806421FFF77FFF012269
:1038C00042AB4AA9812000964A9507E0FDF7AAFE7F
:1038D00042AB01224AA9822000964A9501F0B4FF2A
:1038E0000246642342A91D48FFF732FC052001F07F
:1038F000C7FABBE7012242AB4AA9832000964A954A
:10390000ECE7012242AB4AA9842000964A95E5E7FC
:10391000537461727444656661756C745461736B41
:103920000D0A0000000000201C0500200D0A2A2AB4
:103930002A2A2A2A2A2A2A2A2A2A2A2A2A2A2A2AE7
:103940002A2A2A2A2A2A2A2A2A2A2A2A2A2A2A2AD7
:103950002A2A2A2A2A2A2A2A0D0A0000C807002011
:1039600000F0CEFDFDF78AFF012001F089FAFBE7A8
:10397000064D4FF480644FF47A7621462846FEF7D0
:103980005EFA304601F07CFAF7E7000000140240CE
:103990009FED0E1A70B5C0EE010A9FED0D0A0646A6
:1039A00020EE800ABCEEC00A10EE100A4508002482
:1039B00008E03146002000F01BF83146012000F0FD
:1039C00017F8641CAC42F4D370BD00000000B4438F
:1039D00000008045002805D003490003B1FBF0F04A
:1039E000024948607047000000879303C800002028
:1039F00010B50E4C227891B1AAB1521E22700C491A
:103A00002278895CC943C9B201F08CFF60684FF429
:103A10007A71B0FBF1F0BDE81040FEF701B9521C1D
:103A200002F0070100E007212170E8E7C80000204C
:103A30002E6A000810B54FF0E020006902F02CFD5E
:103A4000012803D0BDE8104002F03ABA10BD0000D2
:103A500030B593B030216846FCF713FE14210CA852
:103A6000FCF70FFE1E480025016841F080510160FF
:103A7000006800F0805011901A48016841F48041BC
:103A800001600068022400F4804011900120009041
:103A9000000401908001CDE90640082008904FF411
:103AA000A870CDE9090404200B906846FEF7A8FB36
:103AB00008B172B6FEE70CA90F2081E831004FF47F
:103AC000A0500F904FF48050109005210CA8FEF7E5
:103AD0008DFA002801D072B6FEE713B030BD0000A9
:103AE00040380240007000400248016841F4700113
:103AF0000160704788ED00E00148FEF7F0BD00006E
:103B0000940B0020F0B50268274B284D284E294F12
:103B1000294C4FF0804C984209D0604507D0A8420C
:103B200005D0B04203D0B84201D0A04204D122F067
:103B3000700E4A6842EA0E0298421BD0604519D0C6
:103B4000A84217D0B04215D0B84213D0A04211D02D
:103B50001A4DA8420ED01A4DA8420BD0194DA842BA
:103B600008D0194DA84205D0184DA84202D0184DD2
:103B7000A84203D122F44075CA682A434D6922F055
:103B800080022A438D68C5620D688562984201D023
:103B9000A04201D109690163016841F0040101609B
:103BA000012141610260F0BD0000014000040040BD
:103BB00000080040000C00400004014000400140AB
:103BC000004401400048014000180040001C004033
:103BD0000020004010B501F01F030121046A994044
:103BE0008C430462016A9A401143016210BD0000D7
:103BF000F0B5036A026A22F0010202624268846937
:103C0000124E24F073050C682C4323F002058B68D8
:103C10002B430D4DA84201D0B04205D123F0080737
:103C2000CB683B4323F00403A84201D0B04205D146
:103C30004D6922F4407215438A692A4342608461C7
:103C4000496841630362F0BD000001400004014087
:103C5000F0B5026A036A23F01003036243688469C3
:103C60000D6824F4E64444EA05248D6822F020021D
:103C700042EA05120F4D104EA84201D0B04206D1C3
:103C8000CF6822F0800242EA071222F04002A842E6
:103C900001D0B04207D14D6923F4406343EA850364
:103CA0008D6943EA850343608461496881630262E8
:103CB000F0BD00000000014000040140F0B5026AC0
:103CC000036A23F4807303624368C46922F40072B8
:103CD00024F073050C68124E2C438D6842EA0522CD
:103CE0000E4DA84201D0B04206D1CF6822F4006246
:103CF00042EA072222F48062A84201D0B04207D1F2
:103D00004D6923F4405343EA05138D6943EA0513D3
:103D10004360C4614968C1630262F0BD00000140B4
:103D20000004014030B5046A026A22F48052026243
:103D30004268C3690D6823F4E64343EA05238D68AE
:103D400024F4005444EA0534084DA84202D0084D3A
:103D5000A84204D14D6922F4804242EA85124260B1
:103D6000C36149680164046230BD00000000014085
:103D70000004014010B5806B0021C185FEF76AFF89
:103D800010BD70B5846B2068406994F84110C0F391
:103D9000C0100025212904D118B1E584204600F087
:103DA0008EF82068406994F84210C0F380102229F0
:103DB00004D118B1E585204600F05AF8606C40F057
:103DC000100060642046FEF745FF70BD10B5014647
:103DD000806B096809684FF00002C9052ED4C285BE
:103DE00001680C3151E8003F23F4807341E800344E
:103DF000002CF5D10168143151E8003F23F0010394
:103E000041E80034002CF5D10168143151E8003F3D
:103E100023F0400341E80034002CF5D1202180F844
:103E20004210016B012909D101680C3151E8003FB2
:103E300023F0100341E80034002CF5D14263016BFC
:103E4000012902D0FFF782F910BD818DFEF7A0FE97
:103E500010BD10B5806B01214163016B012902D0B7
:103E6000FFF775F910BD818D4908FEF791FE10BD71
:103E700001680C3151E8002F22F4907241E80023D0
:103E8000002BF5D10168143151E8002F22F0010216
:103E900041E80023002BF5D1016B012909D101680C
:103EA0000C3151E8002F22F0100241E80023002BD2
:103EB000F5D1202180F8421000210163704701688C
:103EC0000C3151E8002F22F0C00241E80023002B02
:103ED000F5D1202180F84110704708B590F84210C4
:103EE000222901D0022008BD82684FF480539A42F3
:103EF00001D1016921B1816A9A421BD04AB10AE01D
:103F00000268816A5268C2F308020A80816A891CC9
:103F100008E0026972B10268526802F07F020A701A
:103F2000816A491C8162C18D491E0904090CC18541
:103F300003D01BE002685268F1E70168CA6822F00A
:103F40002002CA600168CA6822F48072CA600168EF
:103F50004A6922F001024A61202180F842100021C2
:103F60004163026B012A03D0FFF7F0F8002008BD7F
:103F7000016301680C3151E8002F22F0100241E882
:103F80000023002BF5D101680A68D20602D50A6821
:103F900049680091818DFEF7FBFDE7E770B50446A7
:103FA00000680169E26821F440511143016121690F
:103FB000A068E26908436169114308432168CA683F
:103FC00049F20C639A430243CA6020684169A269BE
:103FD00021F440711143416131492068884202D087
:103FE0003049884202D1FEF7CBF801E0FEF7B8F87D
:103FF000E2690023192164253226B2F5004F626878
:1040000028D0A0FB0101930F9200FCF79AF901461A
:10401000B0FBF5F06FF01802504301EB800006EBA7
:104020000010B0FBF5F000F0F002B1FBF5F002EB90
:104030000012B1FBF5F06FF01803584301EB80005C
:1040400006EB0010B0FBF5F000F00F002168104403
:10405000886070BDA0FB010192185B41FCF771F90B
:104060000146B0FBF5F00201B1FBF5F06FF018036B
:10407000584301EB800006EBC000B0FBF5F000F008
:10408000F80002EB4002B1FBF5F0584301EB800071
:1040900006EBC000B0FBF5F000F00700D6E700002B
:1040A000001001400014014038B581620446828549
:1040B000002013466064222284F84220E56B1F4AE8
:1040C000EA63E56B1E4A2A64E56B1E4AEA64E26B0A
:1040D00010650A462168E06B091DFDF769FD30B1E6
:1040E00010206064202084F84200012038BD206840
:1040F000016840680090206948B120680C3050E8A1
:10410000001F41F4807140E80012002AF5D12068B8
:10411000143050E8001F41F0010140E80012002A6D
:10412000F5D12068143050E8001F41F0400140E80C
:104130000012002AF5D1002038BD0000CD3D000856
:10414000533E0008833D00082DE9F8439846174682
:104150000D460446089E24E0701C22D0FDF77CFE2C
:10416000A0EB0800B0421AD8CEB12068C168490758
:1041700017D5802D15D0402D13D00168C9430907EC
:104180000FD401680025406800902046FFF770FEBC
:104190000820606484F840500120BDE8F8830320C3
:1041A000FBE72068006835EA000004D00020B84230
:1041B000D2D00020F1E70120F9E700000148FEF726
:1041C0004BBD0000380700200148FEF745BD000048
:1041D000800700201CB5164C20680068C00621D559
:1041E0000020009020680168406801902046FEF79A
:1041F000F9FCE06B006840680F49C0F5807082B23E
:104200000C4820F8022BFCF7CDF90C4800236A4635
:104210000849006801F0B2FF4FF480720649204659
:10422000FEF786FFBDE81C400148FEF715BD000003
:10423000C8070020900A00209009002010000020EC
:10424000FEE703B401984100009850EAC12018BF6E
:1042500004204A0D18BF40F0010040F2FF72B2EB9B
:10426000515F08BF40F00200012808BF052002B0DE
:1042700070470907090E002804DB00F1E02080F8F0
:104280000014704700F00F0000F1E02080F8141DCA
:10429000704730380A2801D201207047002070474B
:1042A000704780B200F00AB970B586B01421684634
:1042B000FCF7E7F917480025016841F004010160A7
:1042C000016801F004010591016841F020010160DD
:1042D0000068022400F0200005900120CDE90204CE
:1042E0000D4E0090019069463046FDF7ABFC402032
:1042F000CDE90005694602940848FDF7A3FC0022B9
:1043000001213046FDF7A3FD05496A20087006B07B
:1043100070BD000030380240000802400014024026
:10432000D0000020D8B2134602460248007800F0C0
:1043300031B80000D0000020D8B21346024602482F
:10434000007800F060B80000D00000201CB5FFF736
:10435000ABFF00F03FFA69460D4800F008FB9DF8FE
:104360000000702801D001201CBD0421084800F085
:104370006AFC01A9064800F039FC9DF804000028F9
:10438000F7D10121024800F0DBFA00201CBD00003B
:10439000D40000202DE9F0411D4614460F46064684
:1043A00000F018FA7006000E00F0E8F900F054FA78
:1043B000012812D0384600F0E1F900F04DFA01284A
:1043C0000BD000F007FA012000EB4600C0B200F06D
:1043D000D5F900F041FA01280FD100F01FFA0220B0
:1043E000BDE8F081012C01D9012000E0002000F09F
:1043F00097F9641E05F8010BE4B2002CF2D100F02D
:104400000DFA0020ECE72DE9F0411E4615460F4657
:10441000044600F0DFF96006000E00F0AFF900F08E
:104420001BFA012818D0384600F0A8F900F014FA59
:10443000012811D0002408E0305D00F09FF900F061
:104440000BFA012808D0641CE4B2AC42F4D300F0AB
:10445000E5F90020BDE8F08100F0E0F90220F9E77D
:1044600000220F21501EFDF78FBD70B504460020BD
:1044700002468C250CE0A35C58400023C60702D0FE
:1044800085EA500000E040085B1C082BF6DB521C5C
:104490008A42F0DB70BD00000648016841F080717F
:1044A0000160054800214160016841F0010101609F
:1044B00070470000FCED00E0001000E070B505461C
:1044C00000244FF47A7603E0304600F005F8641CCF
:1044D000AC42F9D370BD00000649074A0968B1FB38
:1044E000F2F1064A4143506853681B1A8B42FBD3D2
:1044F000704700002800002040420F00001000E03C
:1045000086B00024FFF722FF30B147A0FBF790FFF1
:10451000C820FFF7D3FFFBE705214A4800F0E1FB85
:104520000521484800F010FB0021464800F009FC36
:104530000421444800F037FBE8B240F00D01414847
:1045400000F04AFA01213F4800F02FFA00213D48CF
:1045500000F014FA01213B4800F09CFA042139488C
:1045600000F081FA384D04A9364800F0AAFA9DF807
:104570001000C00715D06946324800F09DF9BDF91A
:10458000000000F0C7FA85ED000ABDF9020000F056
:10459000C1FA85ED010ABDF9040000F0BBFA85ED12
:1045A000020A9DF81000800717D502A9254800F0DF
:1045B000A5F9BDF9080000F0A1FA234E0C3686EDEE
:1045C000000ABDF90A0000F099FA86ED010ABDF96A
:1045D0000C0000F093FA86ED020A9DF810004007E7
:1045E00007D505A9174800F05EFBBDF9140000F0DF
:1045F0009DFA641CE4B2142C11D1D5ED020A9FED92
:10460000131A002480EE810A10EE100A02F016F947
:1046100041EC100B0EA053EC102BFBF709FF0A2006
:10462000FFF74CFF9FE7000041544B2D4D5336449C
:10463000535620696E6974206661696C6564210D4A
:104640000A000000D4000020E400002000007A44AA
:1046500025342E3266200A0003490A685206FCD52A
:10466000C2B24A60704700000010014009490020B2
:104670004A7E02B110200A680AB940F00100012800
:1046800001D188604876FDF72FF80A2000F0F8FB8A
:10469000FBE700000005002010B5114C002240216E
:1046A0002046FDF7D4FB0220FFF716FF01228021F0
:1046B0002046FDF7CCFB0220FFF70EFF00228021F1
:1046C0002046FDF7C4FB0220FFF706FF0122402130
:1046D0002046FDF7BCFBBDE810400220FFF7FCBE02
:1046E0000004024010B50D4C012240212046FDF788
:1046F000AEFB0220FFF7F0FE012280212046FDF7ED
:10470000A6FB0220FFF7E8FE002280212046FDF7ED
:104710009EFBBDE810400220FFF7DEBE0004024011
:104720002DE9F0410024144E074625466006040E8C
:10473000012280213046FDF78AFB0220FFF7CCFEE4
:1047400040213046FDF776FB08B1641CE4B200223C
:1047500080213046FDF77BFB0220FFF7BDFE6D1C7C
:10476000EDB2082DE2D327B1FFF796FF2046BDE852
:10477000F081FFF7B7FFF9E70004024070B5144E6F
:1047800005460024280601D5012200E00022402130
:104790003046FDF75CFB0220FFF79EFE01228021E0
:1047A0003046FDF754FB0220FFF796FE00228021E1
:1047B0003046FDF74CFB6806641C050EE4B2082C7D
:1047C000E0D33046BDE8704001224021FDF73FBBF9
:1047D0000004024010B5104C012240212046FDF794
:1047E00036FB012280212046FDF731FB0220FFF736
:1047F00073FE002240212046FDF729FB0220FFF72F
:104800006BFE002280212046FDF721FBBDE8104011
:104810000220FFF761BE00000004024010B50D4CFD
:10482000002240212046FDF712FB0220FFF754FE34
:10483000012280212046FDF70AFB0220FFF74CFEF3
:10484000012240212046FDF702FBBDE81040022076
:10485000FFF742BE0004024070B5164E0024254604
:10486000012240213046FDF7F2FA0220FFF734FE24
:10487000012280213046FDF7EAFA0220FFF72CFEE4
:1048800007E0641CE4B2FA2C03D9FFF7C7FF012547
:1048900005E040213046FDF7CDFA0028F1D1002295
:1048A00080213046FDF7D3FA0220FFF715FE284697
:1048B00070BD0000000402401CB50C4606236A4689
:1048C000282100F087F9002817D19DF801102180D8
:1048D0009DF8002002EB012121809DF803106180EA
:1048E0009DF8022002EB012161809DF80510A18056
:1048F0009DF8042002EB0121A1801CBD1CB50C46D3
:1049000006236A46222100F065F9002817D19DF898
:10491000011021809DF8002002EB012121809DF8EB
:10492000031061809DF8022002EB012161809DF857
:104930000510A1809DF8042002EB0121A1801CBD7F
:1049400038B50C46054601236A46122100F042F9AB
:1049500000280BD19DF80000012364F386108DF828
:1049600000006A461221284600F0AFF938BD10B5A4
:104970000A4601230F2100F02DF910BD38B50C4671
:10498000054601236A46152100F024F900280BD1C1
:104990009DF80000012364F306108DF800006A46BC
:1049A0001521284600F091F938BD38B50C4605466A
:1049B00001236A46162100F00DF900280BD19DF85D
:1049C0000000012364F300008DF800006A46162100
:1049D000284600F07AF938BDFEB50C46064601239C
:1049E00002AA132100F0F6F805469DF80800E4B28B
:1049F00064F3C3008DF80800012302AA1321304696
:104A000000F063F940192DD101236A466321304635
:104A100000F0E0F805469DF80010A00860F30411CE
:104A2000E00860F345118DF8001001236A46632108
:104A3000304600F04AF9401914D1012301AA6F2130
:104A4000304600F0C7F805469DF80400610861F3A0
:104A500086108DF80400012301AA6F21304600F072
:104A600034F92844FEBD38B50C46054601236A4694
:104A7000172100F0AFF800280BD19DF800000123AA
:104A800064F347108DF800006A461721284600F0AD
:104A90001CF938BD38B50C46054601236A46182175
:104AA00000F098F800280BD19DF80000012364F372
:104AB000C3008DF800006A461821284600F005F969
:104AC00038BD38B50C4601236A461E2100F082F835
:104AD000002811D19DF80010227861F300022270A5
:104AE0009DF80010490861F3410222709DF8001002
:104AF000890861F38202227038BD000000EE100ABE
:104B0000DFED030AB8EEC00A20EE200A704700006D
:104B100000008C4200EE100ADFED030AB8EEC00A76
:104B200020EE200A7047000023DB793D00EE100ADA
:104B30009FED041AF8EEC00AB3EE090A00EE810AEE
:104B4000704700000000803B7FB50C4605460123FE
:104B500003AA112100F03EF806469DF80C0001233F
:104B600064F303008DF80C0003AA1121284600F01D
:104B7000ACF8801915D1240913D001236A466221AB
:104B8000284600F027F806469DF80000012364F34C
:104B900001008DF800006A466221284600F095F871
:104BA000304404B070BD38B50C46054601236A4652
:104BB000152100F00FF800280BD19DF8000001230B
:104BC00064F303008DF800006A461521284600F0C2
:104BD0007CF838BD30B428B1C46845682046AC467E
:104BE00030BC604730BC4FF0FF3070477CB50C469E
:104BF0000646012301AA1221FFF7ECFF0546012317
:104C00006A4619463046FFF7E5FF40191AD19DF86C
:104C10000410CA07520FC90902EB41019DF8002098
:104C2000C2F380028A1807D00121012A09D0022A82
:104C300004D0042A05D103E0002102E0022100E0B3
:104C4000042121707CBD7CB50C460546012301AAD8
:104C50001221FFF7BFFF064601236A461946284680
:104C6000FFF7B8FF80191DD19DF80400A10861F37A
:104C7000C710610861F300008DF804009DF8000082
:104C8000012364F382008DF8000001AA1221284656
:104C900000F01BF8044601236A461946284600F036
:104CA00014F820447CBD38B50C4602236A46202106
:104CB000FFF790FF002807D19DF8011021809DF893
:104CC000002002EB0121218038BD30B428B1C46836
:104CD00005682046AC4630BC604730BC4FF0FF3022
:104CE00070477FB50C460546012303AA1021FFF744
:104CF00071FF002823D19DF80C00012364F3030009
:104D00008DF80C0003AA10212846FFF7DEFF0028CB
:104D100015D1240913D001236A4662212846FFF7E2
:104D200059FF06469DF80000012364F301008DF849
:104D300000006A4662212846FFF7C7FF304404B0EE
:104D400070BD38B50C46054601236A461721FFF7AA
:104D500041FF00280BD19DF80000012364F30100FE
:104D60008DF800006A4617212846FFF7AEFF38BDD0
:104D7000FDF780F8FFF790FBFEF76AFEFEF7AAFA50
:104D8000FEF738FAFEF73AFCFEF760FCFEF796FBFA
:104D9000FEF7E4FBFEF742FBFEF774FC002130480F
:104DA000FDF762FE08B172B6FEE704212C48FDF75C
:104DB0005BFE08B172B6FEE708212948FDF754FEF4
:104DC00008B172B6FEE70C212548FDF74DFE08B18B
:104DD00072B6FEE700212348FDF746FE08B172B621
:104DE000FEE704211F48FDF73FFE08B172B6FEE75B
:104DF00008211C48FDF738FE08B172B6FEE70C2109
:104E00001848FDF731FE08B172B6FEE700211648DA
:104E1000FDF72AFE08B172B6FEE704211248FDF73D
:104E200023FE08B172B6FEE708210F48FDF71CFE0D
:104E300008B172B6FEE70C210B48FDF715FE08B16C
:104E400072B6FEE7FCF784FC08A0FBF7F1FA00F06D
:104E500025F8FEF705FA00F033F800F09BFDFEE7B9
:104E600060050020A8050020F00500207468697323
:104E70002069732073746D3332663430370D0A0045
:104E800010B5EFF3058111B16FF0050403E00024C4
:104E900008B100F0B5FE204610BD0000EFF305801C
:104EA00010B16FF0050070470448016811B14FF070
:104EB000FF30704701210160002070477C00002016
:104EC00010B5EFF3058010B16FF0050010BD084874
:104ED0000168012902D04FF0FF3010BD054A0021C2
:104EE00082F8141D0221016000F0F2FE002010BDC6
:104EF0007C0000200BE000E02DE9FF414FEA0103B8
:104F00004FF00005EFF30581039549BB40B38027BF
:104F1000182100244AB3166806B1344696691EB1BA
:104F20003146761E382E02D21679F60703D00020BD
:104F300004B0BDE8F081566906B1B708D2F808C0E0
:104F4000BCF1000F0DD0D5685C2D18D312693AB1B1
:104F500036B18DE806103A46214601F072FA039008
:104F60000DE0D6685EB912694AB903AACDE900120C
:104F7000BAB2214601F038FA012800D0039503980F
:104F8000D6E700002DE9F041134C0F460546E668D0
:104F90002068001D00F001FD681C07D137B12168B1
:104FA000BDE8F0410D48091D00F046BD20683544BC
:104FB000B5424560216805D2A06BBDE8F041091DEE
:104FC00000F022BD606B091D00F01EFDA06A854245
:104FD00000D2A562BDE8F0812C000020CC1000209A
:104FE0002DE9F041054600F033FD2D4CA068401C32
:104FF000A06020682B4F10B1606930B32BE02560B2
:10500000A068012827D1002606EB860007EB800068
:1050100000F0ECFC761C382EF6D3234800F0E6FCBA
:105020002148143000F0E2FC1F48283000F0DEFC7C
:105030001D483C3000F0DAFC1B48503000F0D6FC34
:10504000194860631430A06305E02068E96AC06A0B
:10505000884200D82560606A401C60626864E86A23
:105060002169884200D9206100EB800007EB8000B5
:10507000291D00F0E1FC00F00BFD606900280CD058
:105080002068E96AC06A884207D208494FF0805018
:105090000860BFF34F8FBFF36F8FBDE8F081000052
:1050A0002C0000201C0C00207C10002004ED00E0EF
:1050B00038B500F0CDFC104C2068C8B90F4800F09E
:1050C00095FC0E48143000F091FC0C48E060143060
:1050D00020610A4B0020F03B009003F150021021A8
:1050E0000A2000F024FF206010B105A100F052FD5D
:1050F000BDE8384000F0CCBC68000020D011002092
:10510000546D72510000000030B4026C0B46002A4E
:105110000BD0C1681144C1608468A14201D3016809
:10512000C16030BC1846FBF73DBA30BC70472DE972
:10513000F041856B174604460026026C82B1C7B168
:10514000E068FBF72FFAE168206C091AE160226839
:10515000914202D2A168081AE060022F16D017E02F
:105160002068A8B9A06801F00FFA06460020A060E8
:105170000EE06068FBF716FA216C60680844606016
:10518000A168884204D32068606001E005B16D1E0B
:105190006D1CA5633046BDE8F08110B5044690F85B
:1051A000590058B101280CD002280FD0502080F3AC
:1051B0001188BFF34F8FBFF36F8FFEE7206B00F0B6
:1051C0007BFC2046BDE8104000F076BC10BD00001E
:1051D00010484FF47051420706D0C01D0D4920F011
:1051E0000700411AC1F570510B4A00230144C2E97E
:1051F00000030839183A21F0070111604B600B6079
:105200000B1AC0E9001393604FF0004053605061E7
:1052100070470000B018002098000020144E154C74
:10522000A6F29C474FF08058DFF84C9012E000BF88
:1052300000F00EFCF068C568281D00F0AEFBA06809
:10524000401EA0606068401E606000F021FC28469F
:10525000FFF7A3FF60680028EAD138680128F9D970
:10526000C9F80080BFF34F8FBFF36F8FF2E70000E4
:10527000B81000202C00002004ED00E070B51D46A1
:10528000049C51B1C4F80020C4E90F01012120465B
:1052900000F080FE84F84C5070BD2460F4E70000FC
:1052A0002DE9F05F8846DDE90B94154683469100B1
:1052B0009A460A9EA522206BFBF7B9F96FF003010D
:1052C000206B01EB8501084420F00707780707D021
:1052D000502080F31188BFF34F8FBFF36F8FFEE72D
:1052E0000025B8F1000F0FD05FF00000221818F869
:1052F000001082F8341018F8001011B1401C10286A
:10530000F4D384F8435001E084F83450382E00D3AD
:105310003726E662C4E91365201D00F072FB04F134
:10532000180000F06EFB2461C6F138006462A061D1
:10533000656584F8585052465946384600F05AFA86
:105340002060B9F1000F01D0C9F80040BDE8F09F1E
:1053500030B5114900E011460A688242FBD34B6820
:105360005C18844203D1406818444860084643688A
:105370001C18944209D1084C183C2468A24209D058
:1053800052681A4442600A6812680260814200D082
:10539000086030BD0460F9E79800002070B5002473
:1053A00041600B4D0061914206D8D11A8269914249
:1053B00006D2011D286907E09A4203D2994201D31F
:1053C000012403E0011DE86800F01EFB204670BDCB
:1053D0006800002010B5044600F03AFBA06B28B12D
:1053E0005FF0000400F054FB204610BD0124F9E7F3
:1053F00030B589B03C4D6EE00498002806DADDE94E
:105400000601059A90470498002864DB069C6069B1
:1054100010B1201D00F0C1FA03A800F0D7F8024631
:1054200004980A2857D2DFE800F00505052D334A15
:1054300005052D3394F8280040F0010084F8280079
:105440000599A069059B01442046FFF7A7FF68B3B3
:10545000216A2046884794F8280040073BD5002061
:1054600000900598A169002342181946204601F0D2
:1054700095F9D8B9502080F31188BFF34F8FBFF34F
:105480006F8FFEE714F8280F20F00100207022E053
:1054900094F8280040F0010084F828000598A061E5
:1054A00028B1811813462046FFF778FF13E05020FB
:1054B00080F31188BFF34F8FBFF36F8FFEE794F82F
:1054C0002800810703D4204600F0F6FA03E020F01C
:1054D000010084F82800002204A9286800F0AEFE2C
:1054E000002889D109B030BD680000202DE9FC41B9
:1054F0000F46054600F030FC01A800F067F80446AE
:10550000019818B101F0B8F8BDE8FC81254EAFB1A3
:1055100030690068D0B30027291B3A46306800F094
:105520004DFB01F0A9F80028EED11F494FF0805043
:105530000860BFF34F8FBFF36F8FE5E7A542EBD84D
:1055400001F09AF8F0682746C068C468201D00F092
:1055500024FA94F82800410719D5A0692B4641196F
:105560003A462046FFF71AFFA8B10020034601463D
:1055700000902A46204601F011F960B9502080F3CE
:105580001188BFF34F8FBFF36F8FFEE707E020F066
:10559000010084F82800216A20468847B4E70127E3
:1055A000BAE700006800002004ED00E00648416B07
:1055B000096829B1416BC968C96849688162704747
:1055C0004FF0FF31FAE700002C00002070B50546CF
:1055D00000F070FF064E0446B068844203D200F02B
:1055E00009F8012000E0002028602046B46070BD6A
:1055F00068000020F8B5194D20E0C068C46806684E
:10560000201D00F0CAF9216A2046884794F8280036
:10561000400713D5A0693044B04206D924616060C8
:10562000211DE86800F0F0F908E00020034601467B
:1056300000903246204601F0B1F838B1E8680168C0
:105640000029DAD12969C5E90310F8BD502080F39B
:105650001188BFF34F8FBFF36F8FFEE76800002004
:1056600008484068401C4FF0500080F3118804D077
:10567000BFF34F8FBFF36F8FFEE7BFF34F8FBFF3C3
:105680006F8FFEE7A0000020074CE068016841B181
:10569000C0680021D0F80000FFF728FFFFF7A8FE40
:1056A000F3E701210020F7E7680000202DE9F04131
:1056B000044600F0CDF994F9455004F1240609E0C0
:1056C000606A48B1304600F09FFF08B100F0C6FAAA
:1056D0006D1E6DB2002DF3DC4FF0FF3684F845608F
:1056E00000F0D6F900F0B4F994F9445004F1100731
:1056F00009E0206948B1384600F086FF08B100F0A3
:10570000ADFA6D1E6DB2002DF3DC84F84460BDE887
:10571000F04100F0BDB900002DE9F0410546002739
:1057200000F01AFB324E306808B9FFF751FD70697E
:1057300005424ED1C5B3083568070ED005F0070005
:10574000C0F108000544680707D0502080F3118895
:10575000BFF34F8FBFF36F8FFEE72DB370688542A5
:1057600037D82348183001460C6801E020460C4623
:105770006168A94202D221680029F7D131688C42C0
:1057800027D007682168016060680837411B10292D
:105790000FD96019420708D0502080F31188BFF359
:1057A0004F8FBFF36F8FFEE713E041606560FFF737
:1057B000CFFD61687068401A7060B268904200D294
:1057C000B060706901430020C4E90001F068401C2A
:1057D000F06000F051FF780707D0502080F3118867
:1057E000BFF34F8FBFF36F8FFEE73846BDE8F08100
:1057F0008000002010B5031F4FF080741C601B1F39
:1058000021F001011960191F044B0B6014390A6063
:10581000091F6FF0020244380A6010BD615600088B
:1058200010B504460921FEF720FE607205483223B8
:105830000A2221460068FDF78BFCBDE810400220DB
:10584000FCF7EEB9C40000202DE9F04116460446ED
:1058500006F10100C0B2069A1D000F4600F10408CF
:1058600001D0424502D20020BDE8F081AA21297072
:105870006870AC702EB127B132463946E81CFAF791
:1058800091FE002004E0395C401C2144CCB2C0B23F
:10589000B042F8D3A8190D21C47001714046E3E766
:1058A0002DE9F04114460A46010008D03CB1052A12
:1058B00015D30878AA2804D00120BDE8F08105207E
:1058C000FBE78E1816F8010C0D2801D00220F4E732
:1058D0004878471E412F02D2031D9A4201D003206F
:1058E000EBE700234D1C1A46401C05E015F802C0EA
:1058F000521C8CEA030392B28242F7D316F8020CD0
:10590000834201D00420D8E78878207017F0FF0286
:1059100084F8412003D0601CC91CFAF743FE002024
:10592000CBE700002DE9F041C1F34006C1F380054B
:10593000C1F3C00401F00102B0B1144F4FF4807103
:105940003846FCF784FA324639153846FCF77FFAB8
:105950002A4679153846FCF77AFA2246F914384671
:10596000BDE8F041FCF773BA094F10213846FCF747
:105970006EFA324640213846FCF769FA2A46202161
:105980003846FCF764FA22468021E8E7000C024022
:1059900000180240FEF764FDFEE7D0E9013201691C
:1059A0009A60D0E901235A604A68824201D1826834
:1059B0004A60002202610868401E0860086870475B
:1059C000034B036003F15C000860802010607047A7
:1059D000F8110020044B036003F15C0008604FF4F1
:1059E00080701060704700005414002000F108011E
:1059F0004FF0FF32C0E90112C16001610021016076
:105A0000704700210161704730B50B685A1C02D005
:105A100000F1080202E0026904E0224654682568A9
:105A20009D42FAD953684B6099608A605160086161
:105A30000168491C016030BD42684A6093688B6010
:105A400093685960916008610168491C0160704762
:105A5000502080F31188BFF34F8FBFF36F8F0A4937
:105A60004868401C486001280CD10848006810F0C4
:105A7000FF0F07D0502080F31188BFF34F8FBFF383
:105A80006F8FFEE770470000A000002004ED00E0EB
:105A90000849486828B1401E486001D180F3118848
:105AA0007047502080F31188BFF34F8FBFF36F8F83
:105AB000FEE70000A000002070B500282AD0164D97
:105AC000A0F1080460686969084207D1502080F39A
:105AD0001188BFF34F8FBFF36F8FFEE722683AB193
